{
  "_format": "hh-sol-artifact-1",
  "contractName": "LinkableIncrementalBinaryTree",
  "sourceName": "contracts/base/LinkableIncrementalBinaryTree.sol",
  "abi": [
    {
      "anonymous": false,
      "inputs": [
        {
          "indexed": false,
          "internalType": "uint256",
          "name": "chainID",
          "type": "uint256"
        },
        {
          "indexed": false,
          "internalType": "uint256",
          "name": "latestLeafIndex",
          "type": "uint256"
        },
        {
          "indexed": false,
          "internalType": "bytes32",
          "name": "merkleRoot",
          "type": "bytes32"
        }
      ],
      "name": "EdgeAddition",
      "type": "event"
    },
    {
      "anonymous": false,
      "inputs": [
        {
          "indexed": false,
          "internalType": "uint256",
          "name": "chainID",
          "type": "uint256"
        },
        {
          "indexed": false,
          "internalType": "uint256",
          "name": "latestLeafIndex",
          "type": "uint256"
        },
        {
          "indexed": false,
          "internalType": "bytes32",
          "name": "merkleRoot",
          "type": "bytes32"
        }
      ],
      "name": "EdgeUpdate",
      "type": "event"
    },
    {
      "inputs": [
        {
          "internalType": "uint256",
          "name": "i",
          "type": "uint256"
        }
      ],
      "name": "zeros",
      "outputs": [
        {
          "internalType": "bytes32",
          "name": "",
          "type": "bytes32"
        }
      ],
      "stateMutability": "pure",
      "type": "function"
    }
  ],
  "bytecode": "0x611bd9610053600b82828239805160001a607314610046577f4e487b7100000000000000000000000000000000000000000000000000000000600052600060045260246000fd5b30600052607381538281f3fe73000000000000000000000000000000000000000030146080604052600436106100925760003560e01c80638aac5ac8116100655780638aac5ac814610157578063c08a581614610180578063ce8f1f35146101b0578063e8295588146101e057610092565b806313c332d314610097578063243de1f1146100c757806331ed999d146100f7578063424c5fab14610127575b600080fd5b6100b160048036038101906100ac919061123d565b610210565b6040516100be91906115b7565b60405180910390f35b6100e160048036038101906100dc9190611174565b6102df565b6040516100ee9190611573565b60405180910390f35b610111600480360381019061010c91906111a1565b610421565b60405161011e91906115b7565b60405180910390f35b610141600480360381019061013c9190611174565b6105ea565b60405161014e9190611595565b60405180910390f35b81801561016357600080fd5b5061017e60048036038101906101799190611290565b610789565b005b61019a600480360381019061019591906111fd565b6108b5565b6040516101a791906115b7565b60405180910390f35b6101ca60048036038101906101c59190611174565b61095b565b6040516101d791906115d2565b60405180910390f35b6101fa60048036038101906101f591906112f7565b610994565b60405161020791906115d2565b60405180910390f35b60008060001b82141561022657600090506102d8565b600084600801600085815260200190815260200160002060009054906101000a900463ffffffff16905060008190505b85600701600086815260200190815260200160002060008263ffffffff1663ffffffff1681526020019081526020016000205484141561029b576001925050506102d8565b60008163ffffffff1614156102af57601e90505b80806102ba90611889565b9150508163ffffffff168163ffffffff161415610256576000925050505b9392505050565b606060008260000160009054906101000a900460ff1660ff1667ffffffffffffffff8111156103115761031061198b565b5b60405190808252806020026020018201604052801561033f5781602001602082028036833780820191505090505b50905060005b8360000160009054906101000a900460ff1660ff168110156104175760018161036e9190611781565b8460060180549050106103c7578360060181815481106103915761039061195c565b5b9060005260206000209060040201600101548282815181106103b6576103b561195c565b5b602002602001018181525050610404565b6103e48460000160019054906101000a900460ff1660ff16610994565b8282815181106103f7576103f661195c565b5b6020026020010181815250505b808061040f906118e4565b915050610345565b5080915050919050565b6000610448838360008151811061043b5761043a61195c565b5b60200260200101516108b5565b610487576040517f08c379a000000000000000000000000000000000000000000000000000000000815260040161047e9061160d565b60405180910390fd5b60018360000160009054906101000a900460ff166104a591906117d7565b60ff168251146104ea576040517f08c379a00000000000000000000000000000000000000000000000000000000081526004016104e19061164d565b60405180910390fd5b60005b83600601805490508110156105df5760008460060182815481106105145761051361195c565b5b9060005260206000209060040201604051806080016040529081600082015481526020016001820154815260200160028201548152602001600382015481525050905061058c8582600001518660018661056e9190611781565b8151811061057f5761057e61195c565b5b6020026020010151610210565b6105cb576040517f08c379a00000000000000000000000000000000000000000000000000000000081526004016105c29061166d565b60405180910390fd5b5080806105d7906118e4565b9150506104ed565b506001905092915050565b606060008260000160009054906101000a900460ff1660ff1667ffffffffffffffff81111561061c5761061b61198b565b5b60405190808252806020026020018201604052801561065557816020015b610642611054565b81526020019060019003908161063a5790505b50905060005b8360000160009054906101000a900460ff1660ff1681101561077f576001816106849190611781565b84600601805490501061070b578360060181815481106106a7576106a661195c565b5b90600052602060002090600402016040518060800160405290816000820154815260200160018201548152602001600282015481526020016003820154815250508282815181106106fb576106fa61195c565b5b602002602001018190525061076c565b60405180608001604052806000815260200161073a8660000160019054906101000a900460ff1660ff16610994565b8152602001600081526020016000801b8152508282815181106107605761075f61195c565b5b60200260200101819052505b8080610777906118e4565b91505061065b565b5080915050919050565b7f30644e72e131a029b85045b68181585d2833e84879b9709143e1f593f000000182106107eb576040517f08c379a00000000000000000000000000000000000000000000000000000000081526004016107e2906115ed565b60405180910390fd5b60008360ff161180156108055750602060ff168360ff1611155b610844576040517f08c379a000000000000000000000000000000000000000000000000000000000815260040161083b9061162d565b60405180910390fd5b828460000160016101000a81548160ff021916908360ff160217905550610879600184610871919061180e565b60ff16610994565b84600101600080815260200190815260200160002081905550808460000160006101000a81548160ff021916908360ff16021790555050505050565b60008060001b8214156108cb5760009050610955565b60008360000160029054906101000a900463ffffffff16905060008190505b8460010160008263ffffffff1681526020019081526020016000205484141561091857600192505050610955565b60008163ffffffff16141561092c57601e90505b808061093790611889565b9150508163ffffffff168163ffffffff1614156108ea576000925050505b92915050565b60008160010160008360000160029054906101000a900463ffffffff1663ffffffff168152602001908152602001600020549050919050565b6000808214156109c9577f2fe54c60d3acabf3343a35b6eba15db4821b340f76e741e2249685ed4899af6c60001b905061104f565b60018214156109fd577f13e37f2d6cb86c78ccc1788607c2b199788c6bb0a615a21f2e7a8e88384222f860001b905061104f565b6002821415610a31577f217126fa352c326896e8c2803eec8fd63ad50cf65edfef27a41a9e32dc62276560001b905061104f565b6003821415610a65577f0e28a61a9b3e91007d5a9e3ada18e1b24d6d230c618388ee5df34cacd7397eee60001b905061104f565b6004821415610a99577f27953447a6979839536badc5425ed15fadb0e292e9bc36f92f0aa5cfa501358760001b905061104f565b6005821415610acd577f194191edbfb91d10f6a7afd315f33095410c7801c47175c2df6dc2cce0e3affc60001b905061104f565b6006821415610b01577f1733dece17d71190516dbaf1927936fa643dc7079fc0cc731de9d6845a47741f60001b905061104f565b6007821415610b35577f267855a7dc75db39d81d17f95d0a7aa572bf5ae19f4db0e84221d2b2ef99921960001b905061104f565b6008821415610b69577f1184e11836b4c36ad8238a340ecc0985eeba665327e33e9b0e3641027c27620d60001b905061104f565b6009821415610b9d577f0702ab83a135d7f55350ab1bfaa90babd8fc1d2b3e6a7215381a7b2213d6c5ce60001b905061104f565b600a821415610bd1577f2eecc0de814cfd8c57ce882babb2e30d1da56621aef7a47f3291cffeaec26ad760001b905061104f565b600b821415610c05577f280bc02145c155d5833585b6c7b08501055157dd30ce005319621dc462d33b4760001b905061104f565b600c821415610c39577f045132221d1fa0a7f4aed8acd2cbec1e2189b7732ccb2ec272b9c60f0d5afc5b60001b905061104f565b600d821415610c6d577f27f427ccbf58a44b1270abbe4eda6ba53bd6ac4d88cf1e00a13c4371ce71d36660001b905061104f565b600e821415610ca1577f1617eaae5064f26e8f8a6493ae92bfded7fde71b65df1ca6d5dcec0df70b2cef60001b905061104f565b600f821415610cd5577f20c6b400d0ea1b15435703c31c31ee63ad7ba5c8da66cec2796feacea575abca60001b905061104f565b6010821415610d09577f09589ddb438723f53a8e57bdada7c5f8ed67e8fece3889a73618732965645eec60001b905061104f565b6011821415610d3c577e64b6a738a5ff537db7b220f3394f0ecbd35bfd355c5425dc1166bf3236079b60001b905061104f565b6012821415610d70577f095de56281b1d5055e897c3574ff790d5ee81dbc5df784ad2d67795e557c9e9f60001b905061104f565b6013821415610da4577f11cf2e2887aa21963a6ec14289183efe4d4c60f14ecd3d6fe0beebdf855a9b6360001b905061104f565b6014821415610dd8577f2b0f6fc0179fa65b6f73627c0e1e84c7374d2eaec44c9a48f2571393ea77bcbb60001b905061104f565b6015821415610e0c577f16fdb637c2abf9c0f988dbf2fd64258c46fb6a273d537b2cf1603ea460b1327960001b905061104f565b6016821415610e40577f21bbd7e944f6124dad4c376df9cc12e7ca66e47dff703ff7cedb1a454edcf0ff60001b905061104f565b6017821415610e74577f2784f8220b1c963e468f590f137baaa1625b3b92a27ad9b6e84eb0d3454d996260001b905061104f565b6018821415610ea8577f16ace1a65b7534142f8cc1aad810b3d6a7a74ca905d9c275cb98ba57e509fc1060001b905061104f565b6019821415610edc577f2328068c6a8c24265124debd8fe10d3f29f0665ea725a65e3638f6192a96a01360001b905061104f565b601a821415610f10577f2ddb991be1f028022411b4c4d2c22043e5e751c120736f00adf54acab1c9ac1460001b905061104f565b601b821415610f44577f0113798410eaeb95056a464f70521eb58377c0155f2fe518a5594d38cc209cc060001b905061104f565b601c821415610f78577f202d1ae61526f0d0d01ef80fb5d4055a7af45721024c2c24cffd6a3798f54d5060001b905061104f565b601d821415610fac577f23ab323453748129f2765f79615022f5bebd6f4096a796300aab049a60b0f18760001b905061104f565b601e821415610fe0577f1f15585f8947e378bcf8bd918716799da909acdb944c57150b1eb4565fda8aa060001b905061104f565b601f821415611014577f1eb064b21055ac6a350cf41eb30e4ce2cb19680217df3a243617c2838185ad0660001b905061104f565b6040517f08c379a00000000000000000000000000000000000000000000000000000000081526004016110469061168d565b60405180910390fd5b919050565b6040518060800160405280600081526020016000801916815260200160008152602001600080191681525090565b6000611095611090846116d2565b6116ad565b905080838252602082019050828560208602820111156110b8576110b76119bf565b5b60005b858110156110e857816110ce8882611120565b8452602084019350602083019250506001810190506110bb565b5050509392505050565b600082601f830112611107576111066119ba565b5b8135611117848260208601611082565b91505092915050565b60008135905061112f81611b47565b92915050565b60008135905061114481611b5e565b92915050565b60008135905061115981611b75565b92915050565b60008135905061116e81611b8c565b92915050565b60006020828403121561118a576111896119c9565b5b600061119884828501611135565b91505092915050565b600080604083850312156111b8576111b76119c9565b5b60006111c685828601611135565b925050602083013567ffffffffffffffff8111156111e7576111e66119c4565b5b6111f3858286016110f2565b9150509250929050565b60008060408385031215611214576112136119c9565b5b600061122285828601611135565b925050602061123385828601611120565b9150509250929050565b600080600060608486031215611256576112556119c9565b5b600061126486828701611135565b93505060206112758682870161114a565b925050604061128686828701611120565b9150509250925092565b600080600080608085870312156112aa576112a96119c9565b5b60006112b887828801611135565b94505060206112c98782880161115f565b93505060406112da8782880161114a565b92505060606112eb8782880161115f565b91505092959194509250565b60006020828403121561130d5761130c6119c9565b5b600061131b8482850161114a565b91505092915050565b6000611330838361142e565b60208301905092915050565b6000611348838361150f565b60808301905092915050565b600061135f8261171e565b611369818561174e565b9350611374836116fe565b8060005b838110156113a557815161138c8882611324565b975061139783611734565b925050600181019050611378565b5085935050505092915050565b60006113bd82611729565b6113c7818561175f565b93506113d28361170e565b8060005b838110156114035781516113ea888261133c565b97506113f583611741565b9250506001810190506113d6565b5085935050505092915050565b61141981611842565b82525050565b6114288161184e565b82525050565b6114378161184e565b82525050565b600061144a604083611770565b9150611455826119df565b604082019050919050565b600061146d601c83611770565b915061147882611a2e565b602082019050919050565b6000611490604283611770565b915061149b82611a57565b606082019050919050565b60006114b3601b83611770565b91506114be82611acc565b602082019050919050565b60006114d6601783611770565b91506114e182611af5565b602082019050919050565b60006114f9601383611770565b915061150482611b1e565b602082019050919050565b6080820160008201516115256000850182611564565b506020820151611538602085018261142e565b50604082015161154b6040850182611564565b50606082015161155e606085018261142e565b50505050565b61156d81611862565b82525050565b6000602082019050818103600083015261158d8184611354565b905092915050565b600060208201905081810360008301526115af81846113b2565b905092915050565b60006020820190506115cc6000830184611410565b92915050565b60006020820190506115e7600083018461141f565b92915050565b600060208201905081810360008301526116068161143d565b9050919050565b6000602082019050818103600083015261162681611460565b9050919050565b6000602082019050818103600083015261164681611483565b9050919050565b60006020820190508181036000830152611666816114a6565b9050919050565b60006020820190508181036000830152611686816114c9565b9050919050565b600060208201905081810360008301526116a6816114ec565b9050919050565b60006116b76116c8565b90506116c382826118b3565b919050565b6000604051905090565b600067ffffffffffffffff8211156116ed576116ec61198b565b5b602082029050602081019050919050565b6000819050602082019050919050565b6000819050602082019050919050565b600081519050919050565b600081519050919050565b6000602082019050919050565b6000602082019050919050565b600082825260208201905092915050565b600082825260208201905092915050565b600082825260208201905092915050565b600061178c82611862565b915061179783611862565b9250827fffffffffffffffffffffffffffffffffffffffffffffffffffffffffffffffff038211156117cc576117cb61192d565b5b828201905092915050565b60006117e28261187c565b91506117ed8361187c565b92508260ff038211156118035761180261192d565b5b828201905092915050565b60006118198261187c565b91506118248361187c565b9250828210156118375761183661192d565b5b828203905092915050565b60008115159050919050565b6000819050919050565b6000819050919050565b6000819050919050565b600063ffffffff82169050919050565b600060ff82169050919050565b60006118948261186c565b915060008214156118a8576118a761192d565b5b600182039050919050565b6118bc826119ce565b810181811067ffffffffffffffff821117156118db576118da61198b565b5b80604052505050565b60006118ef82611862565b91507fffffffffffffffffffffffffffffffffffffffffffffffffffffffffffffffff8214156119225761192161192d565b5b600182019050919050565b7f4e487b7100000000000000000000000000000000000000000000000000000000600052601160045260246000fd5b7f4e487b7100000000000000000000000000000000000000000000000000000000600052603260045260246000fd5b7f4e487b7100000000000000000000000000000000000000000000000000000000600052604160045260246000fd5b600080fd5b600080fd5b600080fd5b600080fd5b6000601f19601f8301169050919050565b7f4c696e6b61626c65496e6372656d656e74616c42696e617279547265653a206c60008201527f656166206d757374206265203c20534e41524b5f5343414c41525f4649454c44602082015250565b7f43616e6e6f742066696e6420796f7572206d65726b6c6520726f6f7400000000600082015250565b7f4c696e6b61626c65496e6372656d656e74616c42696e617279547265653a207460008201527f726565206465707468206d757374206265206265747765656e203120616e642060208201527f3332000000000000000000000000000000000000000000000000000000000000604082015250565b7f496e636f727265637420726f6f74206172726179206c656e6774680000000000600082015250565b7f4e65696768626f7220726f6f74206e6f7420666f756e64000000000000000000600082015250565b7f496e646578206f7574206f6620626f756e647300000000000000000000000000600082015250565b611b508161184e565b8114611b5b57600080fd5b50565b611b6781611858565b8114611b7257600080fd5b50565b611b7e81611862565b8114611b8957600080fd5b50565b611b958161187c565b8114611ba057600080fd5b5056fea2646970667358221220049c8b1bdc0777fb6ea81121c65e6e02bcec44399a484cdb6621327f16cb3ec064736f6c63430008050033",
  "linkReferences": {},
  "deployedLinkReferences": {}
}