{
  "_format": "hh-sol-artifact-1",
  "contractName": "SemaphoreInputEncoder",
  "sourceName": "contracts/base/SemaphoreInputEncoder.sol",
  "abi": [
    {
      "inputs": [],
      "name": "EVM_CHAIN_ID_TYPE",
      "outputs": [
        {
          "internalType": "bytes2",
          "name": "",
          "type": "bytes2"
        }
      ],
      "stateMutability": "view",
      "type": "function"
    },
    {
      "inputs": [
        {
          "components": [
            {
              "internalType": "uint256[8]",
              "name": "proof",
              "type": "uint256[8]"
            },
            {
              "internalType": "uint256",
              "name": "calculatedRoot",
              "type": "uint256"
            },
            {
              "internalType": "uint256",
              "name": "nullifierHash",
              "type": "uint256"
            },
            {
              "internalType": "uint256",
              "name": "signalHash",
              "type": "uint256"
            },
            {
              "internalType": "uint256",
              "name": "externalNullifier",
              "type": "uint256"
            },
            {
              "internalType": "bytes",
              "name": "roots",
              "type": "bytes"
            }
          ],
          "internalType": "struct SemaphoreInputEncoder.Proof",
          "name": "_args",
          "type": "tuple"
        },
        {
          "internalType": "uint8",
          "name": "_maxEdges",
          "type": "uint8"
        }
      ],
      "name": "_encodeInputs",
      "outputs": [
        {
          "internalType": "bytes",
          "name": "",
          "type": "bytes"
        },
        {
          "internalType": "bytes32[]",
          "name": "",
          "type": "bytes32[]"
        }
      ],
      "stateMutability": "view",
      "type": "function"
    },
    {
      "inputs": [],
      "name": "getChainId",
      "outputs": [
        {
          "internalType": "uint256",
          "name": "",
          "type": "uint256"
        }
      ],
      "stateMutability": "view",
      "type": "function"
    },
    {
      "inputs": [],
      "name": "getChainIdType",
      "outputs": [
        {
          "internalType": "uint48",
          "name": "",
          "type": "uint48"
        }
      ],
      "stateMutability": "view",
      "type": "function"
    }
  ],
  "bytecode": "0x6114a3610053600b82828239805160001a607314610046577f4e487b7100000000000000000000000000000000000000000000000000000000600052600060045260246000fd5b30600052607381538281f3fe73000000000000000000000000000000000000000030146080604052600436106100565760003560e01c80633408e4701461005b5780634c830cbd146100795780638b7e878214610097578063f0d4020d146100b5575b600080fd5b6100636100e6565b6040516100709190610f72565b60405180910390f35b6100816100f3565b60405161008e9190610f8d565b60405180910390f35b61009f610148565b6040516100ac9190610f00565b60405180910390f35b6100cf60048036038101906100ca9190610c30565b610151565b6040516100dd929190610f1b565b60405180910390f35b6000804690508091505090565b6000806100fe6100e6565b60e01b9050600061010060f01b905060008183604051602001610122929190610ed4565b60405160208183030381529060405290508061013d9061122e565b60d01c935050505090565b61010060f01b81565b606080600061015e6100f3565b65ffffffffffff16905060006001856101779190611140565b60ff1667ffffffffffffffff8111156101935761019261137a565b5b6040519080825280602002602001820160405280156101c15781602001602082028036833780820191505090505b509050606060018660ff1614156103a9576101da610869565b60008860a001518060200190518101906101f49190610bd5565b90508060006002811061020a5761020961134b565b5b6020020151846000815181106102235761022261134b565b5b602002602001018181525050806001600281106102435761024261134b565b5b60200201518460018151811061025c5761025b61134b565b5b6020026020010181815250508860200151826000600781106102815761028061134b565b5b6020020181815250508860400151826001600781106102a3576102a261134b565b5b6020020181815250508860600151826002600781106102c5576102c461134b565b5b6020020181815250508860800151826003600781106102e7576102e661134b565b5b602002018181525050806000600281106103045761030361134b565b5b602002015160001c826004600781106103205761031f61134b565b5b6020020181815250508060016002811061033d5761033c61134b565b5b602002015160001c826005600781106103595761035861134b565b5b60200201818152505084826006600781106103775761037661134b565b5b602002018181525050816040516020016103919190610eb9565b60405160208183030381529060405292505050610859565b60078660ff161415610816576103bd61088b565b60008860a001518060200190518101906103d79190610c02565b9050806000600881106103ed576103ec61134b565b5b6020020151846000815181106104065761040561134b565b5b602002602001018181525050806001600881106104265761042561134b565b5b60200201518460018151811061043f5761043e61134b565b5b6020026020010181815250508060026008811061045f5761045e61134b565b5b6020020151846002815181106104785761047761134b565b5b602002602001018181525050806003600881106104985761049761134b565b5b6020020151846003815181106104b1576104b061134b565b5b602002602001018181525050806004600881106104d1576104d061134b565b5b6020020151846004815181106104ea576104e961134b565b5b6020026020010181815250508060056008811061050a5761050961134b565b5b6020020151846005815181106105235761052261134b565b5b602002602001018181525050806006600881106105435761054261134b565b5b60200201518460068151811061055c5761055b61134b565b5b6020026020010181815250508060076008811061057c5761057b61134b565b5b6020020151846007815181106105955761059461134b565b5b6020026020010181815250508860400151826000600c81106105ba576105b961134b565b5b6020020181815250508860600151826001600c81106105dc576105db61134b565b5b6020020181815250508860800151826002600c81106105fe576105fd61134b565b5b6020020181815250508060006008811061061b5761061a61134b565b5b602002015160001c826003600c81106106375761063661134b565b5b602002018181525050806001600881106106545761065361134b565b5b602002015160001c826004600c81106106705761066f61134b565b5b6020020181815250508060026008811061068d5761068c61134b565b5b602002015160001c826005600c81106106a9576106a861134b565b5b602002018181525050806003600881106106c6576106c561134b565b5b602002015160001c826006600c81106106e2576106e161134b565b5b602002018181525050806004600881106106ff576106fe61134b565b5b602002015160001c826007600c811061071b5761071a61134b565b5b602002018181525050806005600881106107385761073761134b565b5b602002015160001c826008600c81106107545761075361134b565b5b602002018181525050806006600881106107715761077061134b565b5b602002015160001c826009600c811061078d5761078c61134b565b5b602002018181525050806007600881106107aa576107a961134b565b5b602002015160001c82600a600c81106107c6576107c561134b565b5b6020020181815250508482600b600c81106107e4576107e361134b565b5b602002018181525050816040516020016107fe9190610e9d565b60405160208183030381529060405292505050610858565b6000610857576040517f08c379a000000000000000000000000000000000000000000000000000000000815260040161084e90610f52565b60405180910390fd5b5b5b8082945094505050509250929050565b6040518060e00160405280600790602082028036833780820191505090505090565b604051806101800160405280600c90602082028036833780820191505090505090565b60006108c16108bc84610fcd565b610fa8565b905080828560208602820111156108db576108da6113cd565b5b60005b8581101561090b57816108f18882610aa6565b8452602084019350602083019250506001810190506108de565b5050509392505050565b600061092861092384610ff3565b610fa8565b90508082856020860282011115610942576109416113cd565b5b60005b8581101561097257816109588882610aa6565b845260208401935060208301925050600181019050610945565b5050509392505050565b600061098f61098a84611019565b610fa8565b905080828560208602820111156109a9576109a86113cd565b5b60005b858110156109d957816109bf8882610bab565b8452602084019350602083019250506001810190506109ac565b5050509392505050565b60006109f66109f18461103f565b610fa8565b905082815260208101848484011115610a1257610a116113d2565b5b610a1d848285611295565b509392505050565b600082601f830112610a3a57610a396113be565b5b6002610a478482856108ae565b91505092915050565b600082601f830112610a6557610a646113be565b5b6008610a72848285610915565b91505092915050565b600082601f830112610a9057610a8f6113be565b5b6008610a9d84828561097c565b91505092915050565b600081519050610ab581611428565b92915050565b600082601f830112610ad057610acf6113be565b5b8135610ae08482602086016109e3565b91505092915050565b60006101a08284031215610b0057610aff6113c3565b5b610b0a60c0610fa8565b90506000610b1a84828501610a7b565b600083015250610100610b2f84828501610bab565b602083015250610120610b4484828501610bab565b604083015250610140610b5984828501610bab565b606083015250610160610b6e84828501610bab565b60808301525061018082013567ffffffffffffffff811115610b9357610b926113c8565b5b610b9f84828501610abb565b60a08301525092915050565b600081359050610bba8161143f565b92915050565b600081359050610bcf81611456565b92915050565b600060408284031215610beb57610bea6113dc565b5b6000610bf984828501610a25565b91505092915050565b60006101008284031215610c1957610c186113dc565b5b6000610c2784828501610a50565b91505092915050565b60008060408385031215610c4757610c466113dc565b5b600083013567ffffffffffffffff811115610c6557610c646113d7565b5b610c7185828601610ae9565b9250506020610c8285828601610bc0565b9150509250929050565b6000610c988383610dee565b60208301905092915050565b6000610cb08383610e7f565b60208301905092915050565b6000610cc7826110a4565b610cd181856110f7565b9350610cdc83611070565b8060005b83811015610d0d578151610cf48882610c8c565b9750610cff836110d0565b925050600181019050610ce0565b5085935050505092915050565b610d23816110af565b610d2d8184611108565b9250610d3882611080565b8060005b83811015610d69578151610d508782610ca4565b9650610d5b836110dd565b925050600181019050610d3c565b505050505050565b610d7a816110ba565b610d848184611113565b9250610d8f8261108a565b8060005b83811015610dc0578151610da78782610ca4565b9650610db2836110ea565b925050600181019050610d93565b505050505050565b610dd181611177565b82525050565b610de8610de382611177565b611308565b82525050565b610df7816111a3565b82525050565b610e0e610e09826111ad565b611312565b82525050565b6000610e1f826110c5565b610e29818561111e565b9350610e398185602086016112a4565b610e42816113e1565b840191505092915050565b6000610e5a600d8361112f565b9150610e65826113ff565b602082019050919050565b610e7981611205565b82525050565b610e8881611205565b82525050565b610e978161120f565b82525050565b6000610ea98284610d1a565b6101808201915081905092915050565b6000610ec58284610d71565b60e08201915081905092915050565b6000610ee08285610dd7565b600282019150610ef08284610dfd565b6004820191508190509392505050565b6000602082019050610f156000830184610dc8565b92915050565b60006040820190508181036000830152610f358185610e14565b90508181036020830152610f498184610cbc565b90509392505050565b60006020820190508181036000830152610f6b81610e4d565b9050919050565b6000602082019050610f876000830184610e70565b92915050565b6000602082019050610fa26000830184610e8e565b92915050565b6000610fb2610fc3565b9050610fbe82826112d7565b919050565b6000604051905090565b600067ffffffffffffffff821115610fe857610fe761137a565b5b602082029050919050565b600067ffffffffffffffff82111561100e5761100d61137a565b5b602082029050919050565b600067ffffffffffffffff8211156110345761103361137a565b5b602082029050919050565b600067ffffffffffffffff82111561105a5761105961137a565b5b611063826113e1565b9050602081019050919050565b6000819050602082019050919050565b6000819050919050565b6000819050919050565b6000819050602082019050919050565b600081519050919050565b6000600c9050919050565b600060079050919050565b600081519050919050565b6000602082019050919050565b6000602082019050919050565b6000602082019050919050565b600082825260208201905092915050565b600081905092915050565b600081905092915050565b600082825260208201905092915050565b600082825260208201905092915050565b600061114b82611221565b915061115683611221565b92508260ff0382111561116c5761116b61131c565b5b828201905092915050565b60007fffff00000000000000000000000000000000000000000000000000000000000082169050919050565b6000819050919050565b60007fffffffff0000000000000000000000000000000000000000000000000000000082169050919050565b60007fffffffffffff000000000000000000000000000000000000000000000000000082169050919050565b6000819050919050565b600065ffffffffffff82169050919050565b600060ff82169050919050565b6000611239826110c5565b8261124384611094565b905061124e816113a9565b9250600682101561128e576112897fffffffffffff0000000000000000000000000000000000000000000000000000836006036008026113f2565b831692505b5050919050565b82818337600083830152505050565b60005b838110156112c25780820151818401526020810190506112a7565b838111156112d1576000848401525b50505050565b6112e0826113e1565b810181811067ffffffffffffffff821117156112ff576112fe61137a565b5b80604052505050565b6000819050919050565b6000819050919050565b7f4e487b7100000000000000000000000000000000000000000000000000000000600052601160045260246000fd5b7f4e487b7100000000000000000000000000000000000000000000000000000000600052603260045260246000fd5b7f4e487b7100000000000000000000000000000000000000000000000000000000600052604160045260246000fd5b60006113b582516111d9565b80915050919050565b600080fd5b600080fd5b600080fd5b600080fd5b600080fd5b600080fd5b600080fd5b6000601f19601f8301169050919050565b600082821b905092915050565b7f496e76616c696420656467657300000000000000000000000000000000000000600082015250565b611431816111a3565b811461143c57600080fd5b50565b61144881611205565b811461145357600080fd5b50565b61145f81611221565b811461146a57600080fd5b5056fea2646970667358221220dd0f4021f4a9ad868ab303e650caab53ddadb738f2500350a47ae6c8e22ad8b564736f6c63430008050033",
  "linkReferences": {},
  "deployedLinkReferences": {}
}