{
  "_format": "hh-sol-artifact-1",
  "contractName": "Verifier19_2",
  "sourceName": "contracts/verifiers/Verifier19_2.sol",
  "abi": [
    {
      "inputs": [
        {
          "internalType": "uint256[2]",
          "name": "a",
          "type": "uint256[2]"
        },
        {
          "internalType": "uint256[2][2]",
          "name": "b",
          "type": "uint256[2][2]"
        },
        {
          "internalType": "uint256[2]",
          "name": "c",
          "type": "uint256[2]"
        },
        {
          "internalType": "uint256[7]",
          "name": "input",
          "type": "uint256[7]"
        }
      ],
      "name": "verifyProof",
      "outputs": [
        {
          "internalType": "bool",
          "name": "r",
          "type": "bool"
        }
      ],
      "stateMutability": "view",
      "type": "function"
    }
  ],
  "bytecode": "0x608060405234801561001057600080fd5b50611d57806100206000396000f3fe608060405234801561001057600080fd5b506004361061002b5760003560e01c8063c894e75714610030575b600080fd5b61004a600480360381019061004591906116c6565b610060565b6040516100579190611810565b60405180910390f35b600061006a6113b9565b60405180604001604052808760006002811061008957610088611b96565b5b60200201518152602001876001600281106100a7576100a6611b96565b5b6020020151815250816000018190525060405180604001604052806040518060400160405280886000600281106100e1576100e0611b96565b5b60200201516000600281106100f9576100f8611b96565b5b602002015181526020018860006002811061011757610116611b96565b5b602002015160016002811061012f5761012e611b96565b5b6020020151815250815260200160405180604001604052808860016002811061015b5761015a611b96565b5b602002015160006002811061017357610172611b96565b5b602002015181526020018860016002811061019157610190611b96565b5b60200201516001600281106101a9576101a8611b96565b5b602002015181525081525081602001819052506040518060400160405280856000600281106101db576101da611b96565b5b60200201518152602001856001600281106101f9576101f8611b96565b5b602002015181525081604001819052506000600767ffffffffffffffff81111561022657610225611bc5565b5b6040519080825280602002602001820160405280156102545781602001602082028036833780820191505090505b50905060005b60078110156102ad5784816007811061027657610275611b96565b5b602002015182828151811061028e5761028d611b96565b5b60200260200101818152505080806102a590611abe565b91505061025a565b5060006102ba82846102da565b14156102cb576001925050506102d2565b6000925050505b949350505050565b6000807f30644e72e131a029b85045b68181585d2833e84879b9709143e1f593f00000019050600061030a6104cd565b9050806080015151600186516103209190611993565b14610360576040517f08c379a00000000000000000000000000000000000000000000000000000000081526004016103579061182b565b60405180910390fd5b60006040518060400160405280600081526020016000815250905060005b865181101561044f578387828151811061039b5761039a611b96565b5b6020026020010151106103e3576040517f08c379a00000000000000000000000000000000000000000000000000000000081526004016103da9061186b565b60405180910390fd5b61043a8261043585608001516001856103fc9190611993565b8151811061040d5761040c611b96565b5b60200260200101518a858151811061042857610427611b96565b5b6020026020010151610ba0565b610c7d565b9150808061044790611abe565b91505061037e565b5061047981836080015160008151811061046c5761046b611b96565b5b6020026020010151610c7d565b90506104af61048b8660000151610d80565b8660200151846000015185602001518587604001518b604001518960600151610e25565b6104bf57600193505050506104c7565b600093505050505b92915050565b6104d56113ec565b60405180604001604052807f2d4d9aa7e302d9df41749d5507949d05dbea33fbb16c643b22f599a2be6df2e281526020017f14bedd503c37ceb061d8ec60209fe345ce89830a19230301f076caff004d19268152508160000181905250604051806040016040528060405180604001604052807f0967032fcbf776d1afc985f88877f182d38480a653f2decaa9794cbc3bf3060c81526020017f0e187847ad4c798374d0d6732bf501847dd68bc0e071241e0213bc7fc13db7ab815250815260200160405180604001604052807f304cfbd1e08a704a99f5e847d93f8c3caafddec46b7a0d379da69a4d112346a781526020017f1739c1b1a457a8c7313123d24d2f9192f896b7c63eea05a9d57f06547ad0cec88152508152508160200181905250604051806040016040528060405180604001604052807f198e9393920d483a7260bfb731fb5d25f1aa493335a9e71297e485b7aef312c281526020017f1800deef121f1e76426a00665e5c4479674322d4f75edadd46debd5cd992f6ed815250815260200160405180604001604052807f090689d0585ff075ec9e99ad690c3395bc4b313370b38ef355acdadcd122975b81526020017f12c85ea5db8c6deb4aab71808dcb408fe3d1e7690c43d37b4ce6cc0166fa7daa8152508152508160400181905250604051806040016040528060405180604001604052807f14c3d2fecbd9f8e0179f4b7e5039f6086b7d0c04d743f980431ce8957339657a81526020017f047ee30e90863aa2d217fbd07bcd8092735ad09c6aa4921353656d2cc7686d5a815250815260200160405180604001604052807f0540875449c00d2b8dbb6384608ce9c8b0cc9816fee3b46386ed35b69ca9acd281526020017f2051d5f0e7dc446b8a74fd94760b68062cfa4501aae08d9e9f7a6b50f148062a8152508152508160600181905250600867ffffffffffffffff81111561079c5761079b611bc5565b5b6040519080825280602002602001820160405280156107d557816020015b6107c2611433565b8152602001906001900390816107ba5790505b50816080018190525060405180604001604052807f2794ef9e543c6c7d93b3b2b7c8bb1339cdfe9131552b42f5ca711c317dd6460a81526020017f227d2b56eb47c7821a1634b9418a5743c7195afbd12127cc0858f5cbac7f39d3815250816080015160008151811061084b5761084a611b96565b5b602002602001018190525060405180604001604052807f2232e8d9521e7f18dc188b5f8e8f7eed1642a2297ff8b76260b3cac1aedc603a81526020017f03c5c68409c0d6b9773a3882a201e969ce6688335699225fc852323a0ff44b8281525081608001516001815181106108c3576108c2611b96565b5b602002602001018190525060405180604001604052807f0a2ad986cc4498b9cdd64a0b0f314492074f6c3a8e67feae5698c0a6dde6700981526020017f2641fc15d8729ccaf6cb784b27d3fa52ca66e17592e5908b4603e2b415a86371815250816080015160028151811061093b5761093a611b96565b5b602002602001018190525060405180604001604052807f12c047dd18243f50a4f5929b5e9ac945af8c04d7ad4bceff5e409becef6bbe2081526020017f1106051f2b6eba746d84ed37f31d9bd8a801b959acfb237869acdffb37bbefcb81525081608001516003815181106109b3576109b2611b96565b5b602002602001018190525060405180604001604052807f272059e97bfe0f58b58c7e99fef9635e6edc9c58cea9fc5deb5640638c09823c81526020017f2f13f2358268a298468db397bde2fe6b1653debbf97c54032fd133cb32094b928152508160800151600481518110610a2b57610a2a611b96565b5b602002602001018190525060405180604001604052807f1793052ee41bac3e76193b77699acef5e18aa2b603ee9d6107036da8fe231fcc81526020017f1a6a0bd73113f18399bdccf1b591a672d1feba59bb74ad901ef8c14890d5d0a28152508160800151600581518110610aa357610aa2611b96565b5b602002602001018190525060405180604001604052807f1c502f6d57c3eb41311ef2912905b98369ced0a9c6f8471ac2d24de93a69761f81526020017ef31d2555dcd0e28cff80e871f396bb4506cfa124b0bf3b76a4aa136263da338152508160800151600681518110610b1a57610b19611b96565b5b602002602001018190525060405180604001604052807f054ee8496f818fa8637222188c84819d1c32ff580927ce918eb816475944b38381526020017f30188b145fb1a85d36e50fa176e1966d250fb4faa52bcaef60cd800b4dba5e438152508160800151600781518110610b9257610b91611b96565b5b602002602001018190525090565b610ba8611433565b610bb061144d565b836000015181600060038110610bc957610bc8611b96565b5b602002018181525050836020015181600160038110610beb57610bea611b96565b5b6020020181815250508281600260038110610c0957610c08611b96565b5b602002018181525050600060608360808460076107d05a03fa90508060008114610c3257610c34565bfe5b5080610c75576040517f08c379a0000000000000000000000000000000000000000000000000000000008152600401610c6c9061184b565b60405180910390fd5b505092915050565b610c85611433565b610c8d61146f565b836000015181600060048110610ca657610ca5611b96565b5b602002018181525050836020015181600160048110610cc857610cc7611b96565b5b602002018181525050826000015181600260048110610cea57610ce9611b96565b5b602002018181525050826020015181600360048110610d0c57610d0b611b96565b5b602002018181525050600060608360c08460066107d05a03fa90508060008114610d3557610d37565bfe5b5080610d78576040517f08c379a0000000000000000000000000000000000000000000000000000000008152600401610d6f906118ab565b60405180910390fd5b505092915050565b610d88611433565b60007f30644e72e131a029b85045b68181585d97816a916871ca8d3c208c16d87cfd47905060008360000151148015610dc5575060008360200151145b15610de9576040518060400160405280600081526020016000815250915050610e20565b604051806040016040528084600001518152602001828560200151610e0e9190611b07565b83610e199190611a43565b8152509150505b919050565b600080600467ffffffffffffffff811115610e4357610e42611bc5565b5b604051908082528060200260200182016040528015610e7c57816020015b610e69611433565b815260200190600190039081610e615790505b5090506000600467ffffffffffffffff811115610e9c57610e9b611bc5565b5b604051908082528060200260200182016040528015610ed557816020015b610ec2611491565b815260200190600190039081610eba5790505b5090508a82600081518110610eed57610eec611b96565b5b60200260200101819052508882600181518110610f0d57610f0c611b96565b5b60200260200101819052508682600281518110610f2d57610f2c611b96565b5b60200260200101819052508482600381518110610f4d57610f4c611b96565b5b60200260200101819052508981600081518110610f6d57610f6c611b96565b5b60200260200101819052508781600181518110610f8d57610f8c611b96565b5b60200260200101819052508581600281518110610fad57610fac611b96565b5b60200260200101819052508381600381518110610fcd57610fcc611b96565b5b6020026020010181905250610fe28282610ff2565b9250505098975050505050505050565b60008151835114611038576040517f08c379a000000000000000000000000000000000000000000000000000000000815260040161102f9061188b565b60405180910390fd5b600083519050600060068261104d91906119e9565b905060008167ffffffffffffffff81111561106b5761106a611bc5565b5b6040519080825280602002602001820160405280156110995781602001602082028036833780820191505090505b50905060005b8381101561131e578681815181106110ba576110b9611b96565b5b6020026020010151600001518260006006846110d691906119e9565b6110e09190611993565b815181106110f1576110f0611b96565b5b6020026020010181815250508681815181106111105761110f611b96565b5b60200260200101516020015182600160068461112c91906119e9565b6111369190611993565b8151811061114757611146611b96565b5b60200260200101818152505085818151811061116657611165611b96565b5b60200260200101516000015160006002811061118557611184611b96565b5b602002015182600260068461119a91906119e9565b6111a49190611993565b815181106111b5576111b4611b96565b5b6020026020010181815250508581815181106111d4576111d3611b96565b5b6020026020010151600001516001600281106111f3576111f2611b96565b5b602002015182600360068461120891906119e9565b6112129190611993565b8151811061122357611222611b96565b5b60200260200101818152505085818151811061124257611241611b96565b5b60200260200101516020015160006002811061126157611260611b96565b5b602002015182600460068461127691906119e9565b6112809190611993565b8151811061129157611290611b96565b5b6020026020010181815250508581815181106112b0576112af611b96565b5b6020026020010151602001516001600281106112cf576112ce611b96565b5b60200201518260056006846112e491906119e9565b6112ee9190611993565b815181106112ff576112fe611b96565b5b602002602001018181525050808061131690611abe565b91505061109f565b506113276114b7565b6000602082602086026020860160086107d05a03fa9050806000811461134c5761134e565bfe5b508061138f576040517f08c379a0000000000000000000000000000000000000000000000000000000008152600401611386906118cb565b60405180910390fd5b6000826000600181106113a5576113a4611b96565b5b602002015114159550505050505092915050565b60405180606001604052806113cc611433565b81526020016113d9611491565b81526020016113e6611433565b81525090565b6040518060a001604052806113ff611433565b815260200161140c611491565b8152602001611419611491565b8152602001611426611491565b8152602001606081525090565b604051806040016040528060008152602001600081525090565b6040518060600160405280600390602082028036833780820191505090505090565b6040518060800160405280600490602082028036833780820191505090505090565b60405180604001604052806114a46114d9565b81526020016114b16114d9565b81525090565b6040518060200160405280600190602082028036833780820191505090505090565b6040518060400160405280600290602082028036833780820191505090505090565b600061150e61150984611910565b6118eb565b9050808285604086028201111561152857611527611bf9565b5b60005b85811015611558578161153e888261165b565b84526020840193506040830192505060018101905061152b565b5050509392505050565b600061157561157084611936565b6118eb565b9050808285602086028201111561158f5761158e611bf9565b5b60005b858110156115bf57816115a588826116b1565b845260208401935060208301925050600181019050611592565b5050509392505050565b60006115dc6115d78461195c565b6118eb565b905080828560208602820111156115f6576115f5611bf9565b5b60005b85811015611626578161160c88826116b1565b8452602084019350602083019250506001810190506115f9565b5050509392505050565b600082601f83011261164557611644611bf4565b5b60026116528482856114fb565b91505092915050565b600082601f8301126116705761166f611bf4565b5b600261167d848285611562565b91505092915050565b600082601f83011261169b5761169a611bf4565b5b60076116a88482856115c9565b91505092915050565b6000813590506116c081611d0a565b92915050565b6000806000806101e085870312156116e1576116e0611bfe565b5b60006116ef8782880161165b565b945050604061170087828801611630565b93505060c06117118782880161165b565b92505061010061172387828801611686565b91505092959194509250565b61173881611a77565b82525050565b600061174b601283611982565b915061175682611c14565b602082019050919050565b600061176e601283611982565b915061177982611c3d565b602082019050919050565b6000611791601f83611982565b915061179c82611c66565b602082019050919050565b60006117b4601683611982565b91506117bf82611c8f565b602082019050919050565b60006117d7601283611982565b91506117e282611cb8565b602082019050919050565b60006117fa601583611982565b915061180582611ce1565b602082019050919050565b6000602082019050611825600083018461172f565b92915050565b600060208201905081810360008301526118448161173e565b9050919050565b6000602082019050818103600083015261186481611761565b9050919050565b6000602082019050818103600083015261188481611784565b9050919050565b600060208201905081810360008301526118a4816117a7565b9050919050565b600060208201905081810360008301526118c4816117ca565b9050919050565b600060208201905081810360008301526118e4816117ed565b9050919050565b60006118f5611906565b90506119018282611a8d565b919050565b6000604051905090565b600067ffffffffffffffff82111561192b5761192a611bc5565b5b602082029050919050565b600067ffffffffffffffff82111561195157611950611bc5565b5b602082029050919050565b600067ffffffffffffffff82111561197757611976611bc5565b5b602082029050919050565b600082825260208201905092915050565b600061199e82611a83565b91506119a983611a83565b9250827fffffffffffffffffffffffffffffffffffffffffffffffffffffffffffffffff038211156119de576119dd611b38565b5b828201905092915050565b60006119f482611a83565b91506119ff83611a83565b9250817fffffffffffffffffffffffffffffffffffffffffffffffffffffffffffffffff0483118215151615611a3857611a37611b38565b5b828202905092915050565b6000611a4e82611a83565b9150611a5983611a83565b925082821015611a6c57611a6b611b38565b5b828203905092915050565b60008115159050919050565b6000819050919050565b611a9682611c03565b810181811067ffffffffffffffff82111715611ab557611ab4611bc5565b5b80604052505050565b6000611ac982611a83565b91507fffffffffffffffffffffffffffffffffffffffffffffffffffffffffffffffff821415611afc57611afb611b38565b5b600182019050919050565b6000611b1282611a83565b9150611b1d83611a83565b925082611b2d57611b2c611b67565b5b828206905092915050565b7f4e487b7100000000000000000000000000000000000000000000000000000000600052601160045260246000fd5b7f4e487b7100000000000000000000000000000000000000000000000000000000600052601260045260246000fd5b7f4e487b7100000000000000000000000000000000000000000000000000000000600052603260045260246000fd5b7f4e487b7100000000000000000000000000000000000000000000000000000000600052604160045260246000fd5b600080fd5b600080fd5b600080fd5b6000601f19601f8301169050919050565b7f76657269666965722d6261642d696e7075740000000000000000000000000000600082015250565b7f70616972696e672d6d756c2d6661696c65640000000000000000000000000000600082015250565b7f76657269666965722d6774652d736e61726b2d7363616c61722d6669656c6400600082015250565b7f70616972696e672d6c656e677468732d6661696c656400000000000000000000600082015250565b7f70616972696e672d6164642d6661696c65640000000000000000000000000000600082015250565b7f70616972696e672d6f70636f64652d6661696c65640000000000000000000000600082015250565b611d1381611a83565b8114611d1e57600080fd5b5056fea2646970667358221220219849d8d11edb631c840262178510c0c2c67fa49984ea40feab8b7dda21fe5c64736f6c63430008050033",
  "linkReferences": {},
  "deployedLinkReferences": {}
}