{
  "_format": "hh-sol-artifact-1",
  "contractName": "Verifier20_2",
  "sourceName": "contracts/verifiers/Verifier20_2.sol",
  "abi": [
    {
      "inputs": [
        {
          "internalType": "uint256[2]",
          "name": "a",
          "type": "uint256[2]"
        },
        {
          "internalType": "uint256[2][2]",
          "name": "b",
          "type": "uint256[2][2]"
        },
        {
          "internalType": "uint256[2]",
          "name": "c",
          "type": "uint256[2]"
        },
        {
          "internalType": "uint256[7]",
          "name": "input",
          "type": "uint256[7]"
        }
      ],
      "name": "verifyProof",
      "outputs": [
        {
          "internalType": "bool",
          "name": "r",
          "type": "bool"
        }
      ],
      "stateMutability": "view",
      "type": "function"
    }
  ],
  "bytecode": "0x608060405234801561001057600080fd5b50611d58806100206000396000f3fe608060405234801561001057600080fd5b506004361061002b5760003560e01c8063c894e75714610030575b600080fd5b61004a600480360381019061004591906116c7565b610060565b6040516100579190611811565b60405180910390f35b600061006a6113ba565b60405180604001604052808760006002811061008957610088611b97565b5b60200201518152602001876001600281106100a7576100a6611b97565b5b6020020151815250816000018190525060405180604001604052806040518060400160405280886000600281106100e1576100e0611b97565b5b60200201516000600281106100f9576100f8611b97565b5b602002015181526020018860006002811061011757610116611b97565b5b602002015160016002811061012f5761012e611b97565b5b6020020151815250815260200160405180604001604052808860016002811061015b5761015a611b97565b5b602002015160006002811061017357610172611b97565b5b602002015181526020018860016002811061019157610190611b97565b5b60200201516001600281106101a9576101a8611b97565b5b602002015181525081525081602001819052506040518060400160405280856000600281106101db576101da611b97565b5b60200201518152602001856001600281106101f9576101f8611b97565b5b602002015181525081604001819052506000600767ffffffffffffffff81111561022657610225611bc6565b5b6040519080825280602002602001820160405280156102545781602001602082028036833780820191505090505b50905060005b60078110156102ad5784816007811061027657610275611b97565b5b602002015182828151811061028e5761028d611b97565b5b60200260200101818152505080806102a590611abf565b91505061025a565b5060006102ba82846102da565b14156102cb576001925050506102d2565b6000925050505b949350505050565b6000807f30644e72e131a029b85045b68181585d2833e84879b9709143e1f593f00000019050600061030a6104cd565b9050806080015151600186516103209190611994565b14610360576040517f08c379a00000000000000000000000000000000000000000000000000000000081526004016103579061182c565b60405180910390fd5b60006040518060400160405280600081526020016000815250905060005b865181101561044f578387828151811061039b5761039a611b97565b5b6020026020010151106103e3576040517f08c379a00000000000000000000000000000000000000000000000000000000081526004016103da9061186c565b60405180910390fd5b61043a8261043585608001516001856103fc9190611994565b8151811061040d5761040c611b97565b5b60200260200101518a858151811061042857610427611b97565b5b6020026020010151610ba1565b610c7e565b9150808061044790611abf565b91505061037e565b5061047981836080015160008151811061046c5761046b611b97565b5b6020026020010151610c7e565b90506104af61048b8660000151610d81565b8660200151846000015185602001518587604001518b604001518960600151610e26565b6104bf57600193505050506104c7565b600093505050505b92915050565b6104d56113ed565b60405180604001604052807f2d4d9aa7e302d9df41749d5507949d05dbea33fbb16c643b22f599a2be6df2e281526020017f14bedd503c37ceb061d8ec60209fe345ce89830a19230301f076caff004d19268152508160000181905250604051806040016040528060405180604001604052807f0967032fcbf776d1afc985f88877f182d38480a653f2decaa9794cbc3bf3060c81526020017f0e187847ad4c798374d0d6732bf501847dd68bc0e071241e0213bc7fc13db7ab815250815260200160405180604001604052807f304cfbd1e08a704a99f5e847d93f8c3caafddec46b7a0d379da69a4d112346a781526020017f1739c1b1a457a8c7313123d24d2f9192f896b7c63eea05a9d57f06547ad0cec88152508152508160200181905250604051806040016040528060405180604001604052807f198e9393920d483a7260bfb731fb5d25f1aa493335a9e71297e485b7aef312c281526020017f1800deef121f1e76426a00665e5c4479674322d4f75edadd46debd5cd992f6ed815250815260200160405180604001604052807f090689d0585ff075ec9e99ad690c3395bc4b313370b38ef355acdadcd122975b81526020017f12c85ea5db8c6deb4aab71808dcb408fe3d1e7690c43d37b4ce6cc0166fa7daa8152508152508160400181905250604051806040016040528060405180604001604052807f1cc7fd5bc775341106885270c548ecd6fff5c66f69541354f4a7792b4a217e6481526020017f13ebe2cef0fdeb7a5050e4ee0d63858060548f13d05eea241cde156b073b0193815250815260200160405180604001604052807f0c0e7d9d0861d94f9c230a2eb3e71911a92f41a645f6221198c327f595f2189e81526020017f2642119cc8fb622381d1bdf80855fc6077133b146fa10190feb47a02ee8ce6848152508152508160600181905250600867ffffffffffffffff81111561079c5761079b611bc6565b5b6040519080825280602002602001820160405280156107d557816020015b6107c2611434565b8152602001906001900390816107ba5790505b50816080018190525060405180604001604052807f0ee8b4e32ab6190c961af72af931f78fdb7edd7ad36565f2dbd609126fd9065881526020017f273452b1ab0a9316a03bb92a53fa7e3590eeb374d6f66be96c4227a3b96d4a6e815250816080015160008151811061084b5761084a611b97565b5b602002602001018190525060405180604001604052807f1340d51c8e95e759095905fc09ed3e440ad7c0e6558f9e9884ca4f274045ed7281526020017f268577ba8e7c1271f1b11a90fc924b24af26de3d7898973dd4b999684256a0f681525081608001516001815181106108c3576108c2611b97565b5b602002602001018190525060405180604001604052807f01786c16e893e642ebc9f102cccdbf55168155c5bc543d7650224d43881eaf8a81526020017f12482ccb8728637210956d99a3cca9fc9667f60fd86998324a26c5389e1905c1815250816080015160028151811061093b5761093a611b97565b5b602002602001018190525060405180604001604052807f1219d4fdc1dce33e483446a730a495f788019139271ffce3287a3b52e126694c81526020017f26d832274ec3f83e439d02569682dbf59f54ba964836591085259569bc8e56cb81525081608001516003815181106109b3576109b2611b97565b5b602002602001018190525060405180604001604052807f18775ecf635eab77aef7d8f1a7703331cd38f1c48075a12eea02be0faad7e7a181526020017f12cdd165ddea1241a6cbf2ce0d6b638b72874b7bb36621a29b0852f661be26e48152508160800151600481518110610a2b57610a2a611b97565b5b602002602001018190525060405180604001604052807f162ee2fca0970fa10b2b10d8e00658792d259919c70bac20cdf59be4145c1e6c81526020017f2599ef5fba46d490f63ffb784f52a36cf34a93eb36fe7012910d4c374cf60d208152508160800151600581518110610aa357610aa2611b97565b5b602002602001018190525060405180604001604052807f0e042e6b0646fc47de37dfccec4a268ee2125e591a2aafae199edc55c3b731aa81526020017f2cd9f8bc6e268431337a43af7fd8d69ecb41dc4c81a9e1a3de69828431d5bcee8152508160800151600681518110610b1b57610b1a611b97565b5b602002602001018190525060405180604001604052807f215fb5467263f16d5fec95077e782dd851340a2564453be9b9dbe667837bc4dd81526020017f28e86009632c8e23670cb5384688abebc00641d2e69863a76a31d14f2fd724298152508160800151600781518110610b9357610b92611b97565b5b602002602001018190525090565b610ba9611434565b610bb161144e565b836000015181600060038110610bca57610bc9611b97565b5b602002018181525050836020015181600160038110610bec57610beb611b97565b5b6020020181815250508281600260038110610c0a57610c09611b97565b5b602002018181525050600060608360808460076107d05a03fa90508060008114610c3357610c35565bfe5b5080610c76576040517f08c379a0000000000000000000000000000000000000000000000000000000008152600401610c6d9061184c565b60405180910390fd5b505092915050565b610c86611434565b610c8e611470565b836000015181600060048110610ca757610ca6611b97565b5b602002018181525050836020015181600160048110610cc957610cc8611b97565b5b602002018181525050826000015181600260048110610ceb57610cea611b97565b5b602002018181525050826020015181600360048110610d0d57610d0c611b97565b5b602002018181525050600060608360c08460066107d05a03fa90508060008114610d3657610d38565bfe5b5080610d79576040517f08c379a0000000000000000000000000000000000000000000000000000000008152600401610d70906118ac565b60405180910390fd5b505092915050565b610d89611434565b60007f30644e72e131a029b85045b68181585d97816a916871ca8d3c208c16d87cfd47905060008360000151148015610dc6575060008360200151145b15610dea576040518060400160405280600081526020016000815250915050610e21565b604051806040016040528084600001518152602001828560200151610e0f9190611b08565b83610e1a9190611a44565b8152509150505b919050565b600080600467ffffffffffffffff811115610e4457610e43611bc6565b5b604051908082528060200260200182016040528015610e7d57816020015b610e6a611434565b815260200190600190039081610e625790505b5090506000600467ffffffffffffffff811115610e9d57610e9c611bc6565b5b604051908082528060200260200182016040528015610ed657816020015b610ec3611492565b815260200190600190039081610ebb5790505b5090508a82600081518110610eee57610eed611b97565b5b60200260200101819052508882600181518110610f0e57610f0d611b97565b5b60200260200101819052508682600281518110610f2e57610f2d611b97565b5b60200260200101819052508482600381518110610f4e57610f4d611b97565b5b60200260200101819052508981600081518110610f6e57610f6d611b97565b5b60200260200101819052508781600181518110610f8e57610f8d611b97565b5b60200260200101819052508581600281518110610fae57610fad611b97565b5b60200260200101819052508381600381518110610fce57610fcd611b97565b5b6020026020010181905250610fe38282610ff3565b9250505098975050505050505050565b60008151835114611039576040517f08c379a00000000000000000000000000000000000000000000000000000000081526004016110309061188c565b60405180910390fd5b600083519050600060068261104e91906119ea565b905060008167ffffffffffffffff81111561106c5761106b611bc6565b5b60405190808252806020026020018201604052801561109a5781602001602082028036833780820191505090505b50905060005b8381101561131f578681815181106110bb576110ba611b97565b5b6020026020010151600001518260006006846110d791906119ea565b6110e19190611994565b815181106110f2576110f1611b97565b5b60200260200101818152505086818151811061111157611110611b97565b5b60200260200101516020015182600160068461112d91906119ea565b6111379190611994565b8151811061114857611147611b97565b5b60200260200101818152505085818151811061116757611166611b97565b5b60200260200101516000015160006002811061118657611185611b97565b5b602002015182600260068461119b91906119ea565b6111a59190611994565b815181106111b6576111b5611b97565b5b6020026020010181815250508581815181106111d5576111d4611b97565b5b6020026020010151600001516001600281106111f4576111f3611b97565b5b602002015182600360068461120991906119ea565b6112139190611994565b8151811061122457611223611b97565b5b60200260200101818152505085818151811061124357611242611b97565b5b60200260200101516020015160006002811061126257611261611b97565b5b602002015182600460068461127791906119ea565b6112819190611994565b8151811061129257611291611b97565b5b6020026020010181815250508581815181106112b1576112b0611b97565b5b6020026020010151602001516001600281106112d0576112cf611b97565b5b60200201518260056006846112e591906119ea565b6112ef9190611994565b81518110611300576112ff611b97565b5b602002602001018181525050808061131790611abf565b9150506110a0565b506113286114b8565b6000602082602086026020860160086107d05a03fa9050806000811461134d5761134f565bfe5b5080611390576040517f08c379a0000000000000000000000000000000000000000000000000000000008152600401611387906118cc565b60405180910390fd5b6000826000600181106113a6576113a5611b97565b5b602002015114159550505050505092915050565b60405180606001604052806113cd611434565b81526020016113da611492565b81526020016113e7611434565b81525090565b6040518060a00160405280611400611434565b815260200161140d611492565b815260200161141a611492565b8152602001611427611492565b8152602001606081525090565b604051806040016040528060008152602001600081525090565b6040518060600160405280600390602082028036833780820191505090505090565b6040518060800160405280600490602082028036833780820191505090505090565b60405180604001604052806114a56114da565b81526020016114b26114da565b81525090565b6040518060200160405280600190602082028036833780820191505090505090565b6040518060400160405280600290602082028036833780820191505090505090565b600061150f61150a84611911565b6118ec565b9050808285604086028201111561152957611528611bfa565b5b60005b85811015611559578161153f888261165c565b84526020840193506040830192505060018101905061152c565b5050509392505050565b600061157661157184611937565b6118ec565b905080828560208602820111156115905761158f611bfa565b5b60005b858110156115c057816115a688826116b2565b845260208401935060208301925050600181019050611593565b5050509392505050565b60006115dd6115d88461195d565b6118ec565b905080828560208602820111156115f7576115f6611bfa565b5b60005b85811015611627578161160d88826116b2565b8452602084019350602083019250506001810190506115fa565b5050509392505050565b600082601f83011261164657611645611bf5565b5b60026116538482856114fc565b91505092915050565b600082601f83011261167157611670611bf5565b5b600261167e848285611563565b91505092915050565b600082601f83011261169c5761169b611bf5565b5b60076116a98482856115ca565b91505092915050565b6000813590506116c181611d0b565b92915050565b6000806000806101e085870312156116e2576116e1611bff565b5b60006116f08782880161165c565b945050604061170187828801611631565b93505060c06117128782880161165c565b92505061010061172487828801611687565b91505092959194509250565b61173981611a78565b82525050565b600061174c601283611983565b915061175782611c15565b602082019050919050565b600061176f601283611983565b915061177a82611c3e565b602082019050919050565b6000611792601f83611983565b915061179d82611c67565b602082019050919050565b60006117b5601683611983565b91506117c082611c90565b602082019050919050565b60006117d8601283611983565b91506117e382611cb9565b602082019050919050565b60006117fb601583611983565b915061180682611ce2565b602082019050919050565b60006020820190506118266000830184611730565b92915050565b600060208201905081810360008301526118458161173f565b9050919050565b6000602082019050818103600083015261186581611762565b9050919050565b6000602082019050818103600083015261188581611785565b9050919050565b600060208201905081810360008301526118a5816117a8565b9050919050565b600060208201905081810360008301526118c5816117cb565b9050919050565b600060208201905081810360008301526118e5816117ee565b9050919050565b60006118f6611907565b90506119028282611a8e565b919050565b6000604051905090565b600067ffffffffffffffff82111561192c5761192b611bc6565b5b602082029050919050565b600067ffffffffffffffff82111561195257611951611bc6565b5b602082029050919050565b600067ffffffffffffffff82111561197857611977611bc6565b5b602082029050919050565b600082825260208201905092915050565b600061199f82611a84565b91506119aa83611a84565b9250827fffffffffffffffffffffffffffffffffffffffffffffffffffffffffffffffff038211156119df576119de611b39565b5b828201905092915050565b60006119f582611a84565b9150611a0083611a84565b9250817fffffffffffffffffffffffffffffffffffffffffffffffffffffffffffffffff0483118215151615611a3957611a38611b39565b5b828202905092915050565b6000611a4f82611a84565b9150611a5a83611a84565b925082821015611a6d57611a6c611b39565b5b828203905092915050565b60008115159050919050565b6000819050919050565b611a9782611c04565b810181811067ffffffffffffffff82111715611ab657611ab5611bc6565b5b80604052505050565b6000611aca82611a84565b91507fffffffffffffffffffffffffffffffffffffffffffffffffffffffffffffffff821415611afd57611afc611b39565b5b600182019050919050565b6000611b1382611a84565b9150611b1e83611a84565b925082611b2e57611b2d611b68565b5b828206905092915050565b7f4e487b7100000000000000000000000000000000000000000000000000000000600052601160045260246000fd5b7f4e487b7100000000000000000000000000000000000000000000000000000000600052601260045260246000fd5b7f4e487b7100000000000000000000000000000000000000000000000000000000600052603260045260246000fd5b7f4e487b7100000000000000000000000000000000000000000000000000000000600052604160045260246000fd5b600080fd5b600080fd5b600080fd5b6000601f19601f8301169050919050565b7f76657269666965722d6261642d696e7075740000000000000000000000000000600082015250565b7f70616972696e672d6d756c2d6661696c65640000000000000000000000000000600082015250565b7f76657269666965722d6774652d736e61726b2d7363616c61722d6669656c6400600082015250565b7f70616972696e672d6c656e677468732d6661696c656400000000000000000000600082015250565b7f70616972696e672d6164642d6661696c65640000000000000000000000000000600082015250565b7f70616972696e672d6f70636f64652d6661696c65640000000000000000000000600082015250565b611d1481611a84565b8114611d1f57600080fd5b5056fea2646970667358221220284a280f525df86c5645d3c1951c92166b519ff1e4653a2103bb1a35dc8ccb2964736f6c63430008050033",
  "linkReferences": {},
  "deployedLinkReferences": {}
}