{
  "_format": "hh-sol-artifact-1",
  "contractName": "Semaphore",
  "sourceName": "contracts/Semaphore.sol",
  "abi": [
    {
      "inputs": [
        {
          "components": [
            {
              "internalType": "address",
              "name": "contractAddress",
              "type": "address"
            },
            {
              "internalType": "uint8",
              "name": "merkleTreeDepth",
              "type": "uint8"
            }
          ],
          "internalType": "struct ISemaphore.Verifier[]",
          "name": "_verifiers",
          "type": "tuple[]"
        }
      ],
      "stateMutability": "nonpayable",
      "type": "constructor"
    },
    {
      "inputs": [],
      "name": "Semaphore__CallerIsNotTheGroupAdmin",
      "type": "error"
    },
    {
      "inputs": [],
      "name": "Semaphore__GroupAlreadyExists",
      "type": "error"
    },
    {
      "inputs": [],
      "name": "Semaphore__GroupDoesNotExist",
      "type": "error"
    },
    {
      "inputs": [],
      "name": "Semaphore__GroupIdIsNotLessThanSnarkScalarField",
      "type": "error"
    },
    {
      "inputs": [],
      "name": "Semaphore__TreeDepthIsNotSupported",
      "type": "error"
    },
    {
      "inputs": [],
      "name": "Semaphore__YouAreUsingTheSameNillifierTwice",
      "type": "error"
    },
    {
      "anonymous": false,
      "inputs": [
        {
          "indexed": true,
          "internalType": "uint256",
          "name": "groupId",
          "type": "uint256"
        },
        {
          "indexed": true,
          "internalType": "address",
          "name": "oldAdmin",
          "type": "address"
        },
        {
          "indexed": true,
          "internalType": "address",
          "name": "newAdmin",
          "type": "address"
        }
      ],
      "name": "GroupAdminUpdated",
      "type": "event"
    },
    {
      "anonymous": false,
      "inputs": [
        {
          "indexed": true,
          "internalType": "uint256",
          "name": "groupId",
          "type": "uint256"
        },
        {
          "indexed": false,
          "internalType": "uint8",
          "name": "depth",
          "type": "uint8"
        },
        {
          "indexed": false,
          "internalType": "uint256",
          "name": "zeroValue",
          "type": "uint256"
        }
      ],
      "name": "GroupCreated",
      "type": "event"
    },
    {
      "anonymous": false,
      "inputs": [
        {
          "indexed": true,
          "internalType": "uint256",
          "name": "groupId",
          "type": "uint256"
        },
        {
          "indexed": false,
          "internalType": "uint256",
          "name": "identityCommitment",
          "type": "uint256"
        },
        {
          "indexed": false,
          "internalType": "uint256",
          "name": "root",
          "type": "uint256"
        }
      ],
      "name": "MemberAdded",
      "type": "event"
    },
    {
      "anonymous": false,
      "inputs": [
        {
          "indexed": true,
          "internalType": "uint256",
          "name": "groupId",
          "type": "uint256"
        },
        {
          "indexed": false,
          "internalType": "uint256",
          "name": "identityCommitment",
          "type": "uint256"
        },
        {
          "indexed": false,
          "internalType": "uint256",
          "name": "root",
          "type": "uint256"
        }
      ],
      "name": "MemberRemoved",
      "type": "event"
    },
    {
      "anonymous": false,
      "inputs": [
        {
          "indexed": false,
          "internalType": "uint256",
          "name": "nullifierHash",
          "type": "uint256"
        }
      ],
      "name": "NullifierHashAdded",
      "type": "event"
    },
    {
      "anonymous": false,
      "inputs": [
        {
          "indexed": true,
          "internalType": "uint256",
          "name": "groupId",
          "type": "uint256"
        },
        {
          "indexed": false,
          "internalType": "bytes32",
          "name": "signal",
          "type": "bytes32"
        }
      ],
      "name": "ProofVerified",
      "type": "event"
    },
    {
      "inputs": [
        {
          "internalType": "uint256",
          "name": "groupId",
          "type": "uint256"
        },
        {
          "internalType": "uint256",
          "name": "identityCommitment",
          "type": "uint256"
        }
      ],
      "name": "addMember",
      "outputs": [],
      "stateMutability": "nonpayable",
      "type": "function"
    },
    {
      "inputs": [
        {
          "internalType": "uint256",
          "name": "groupId",
          "type": "uint256"
        },
        {
          "internalType": "uint8",
          "name": "depth",
          "type": "uint8"
        },
        {
          "internalType": "uint256",
          "name": "zeroValue",
          "type": "uint256"
        },
        {
          "internalType": "address",
          "name": "admin",
          "type": "address"
        },
        {
          "internalType": "uint8",
          "name": "maxEdges",
          "type": "uint8"
        }
      ],
      "name": "createGroup",
      "outputs": [],
      "stateMutability": "nonpayable",
      "type": "function"
    },
    {
      "inputs": [
        {
          "internalType": "uint256",
          "name": "groupId",
          "type": "uint256"
        }
      ],
      "name": "getDepth",
      "outputs": [
        {
          "internalType": "uint8",
          "name": "",
          "type": "uint8"
        }
      ],
      "stateMutability": "view",
      "type": "function"
    },
    {
      "inputs": [
        {
          "internalType": "uint256",
          "name": "groupId",
          "type": "uint256"
        }
      ],
      "name": "getMaxEdges",
      "outputs": [
        {
          "internalType": "uint8",
          "name": "",
          "type": "uint8"
        }
      ],
      "stateMutability": "view",
      "type": "function"
    },
    {
      "inputs": [
        {
          "internalType": "uint256",
          "name": "groupId",
          "type": "uint256"
        }
      ],
      "name": "getNumberOfLeaves",
      "outputs": [
        {
          "internalType": "uint256",
          "name": "",
          "type": "uint256"
        }
      ],
      "stateMutability": "view",
      "type": "function"
    },
    {
      "inputs": [
        {
          "internalType": "uint256",
          "name": "groupId",
          "type": "uint256"
        }
      ],
      "name": "getRoot",
      "outputs": [
        {
          "internalType": "uint256",
          "name": "",
          "type": "uint256"
        }
      ],
      "stateMutability": "view",
      "type": "function"
    },
    {
      "inputs": [
        {
          "internalType": "uint256",
          "name": "",
          "type": "uint256"
        }
      ],
      "name": "groupAdmins",
      "outputs": [
        {
          "internalType": "address",
          "name": "",
          "type": "address"
        }
      ],
      "stateMutability": "view",
      "type": "function"
    },
    {
      "inputs": [
        {
          "internalType": "uint256",
          "name": "",
          "type": "uint256"
        }
      ],
      "name": "groupMaxEdges",
      "outputs": [
        {
          "internalType": "uint8",
          "name": "",
          "type": "uint8"
        }
      ],
      "stateMutability": "view",
      "type": "function"
    },
    {
      "inputs": [
        {
          "internalType": "uint256",
          "name": "groupId",
          "type": "uint256"
        },
        {
          "internalType": "uint256",
          "name": "identityCommitment",
          "type": "uint256"
        },
        {
          "internalType": "uint256[]",
          "name": "proofSiblings",
          "type": "uint256[]"
        },
        {
          "internalType": "uint8[]",
          "name": "proofPathIndices",
          "type": "uint8[]"
        }
      ],
      "name": "removeMember",
      "outputs": [],
      "stateMutability": "nonpayable",
      "type": "function"
    },
    {
      "inputs": [
        {
          "internalType": "uint256",
          "name": "groupId",
          "type": "uint256"
        },
        {
          "internalType": "address",
          "name": "newAdmin",
          "type": "address"
        }
      ],
      "name": "updateGroupAdmin",
      "outputs": [],
      "stateMutability": "nonpayable",
      "type": "function"
    },
    {
      "inputs": [
        {
          "internalType": "uint8",
          "name": "",
          "type": "uint8"
        }
      ],
      "name": "verifiers",
      "outputs": [
        {
          "internalType": "contract SemaphoreVerifier",
          "name": "",
          "type": "address"
        }
      ],
      "stateMutability": "view",
      "type": "function"
    },
    {
      "inputs": [
        {
          "internalType": "uint256",
          "name": "groupId",
          "type": "uint256"
        },
        {
          "internalType": "bytes32",
          "name": "signal",
          "type": "bytes32"
        },
        {
          "internalType": "uint256",
          "name": "nullifierHash",
          "type": "uint256"
        },
        {
          "internalType": "uint256",
          "name": "externalNullifier",
          "type": "uint256"
        },
        {
          "internalType": "bytes",
          "name": "roots",
          "type": "bytes"
        },
        {
          "internalType": "uint256[8]",
          "name": "proof",
          "type": "uint256[8]"
        }
      ],
      "name": "verifyProof",
      "outputs": [],
      "stateMutability": "nonpayable",
      "type": "function"
    }
  ],
  "bytecode": "0x60806040523480156200001157600080fd5b5060405162003d9738038062003d9783398181016040528101906200003791906200023a565b60005b81518160ff161015620000fd57818160ff168151811062000060576200005f620003b8565b5b60200260200101516000015160026000848460ff1681518110620000895762000088620003b8565b5b60200260200101516020015160ff1660ff16815260200190815260200160002060006101000a81548173ffffffffffffffffffffffffffffffffffffffff021916908373ffffffffffffffffffffffffffffffffffffffff1602179055508080620000f4906200035a565b9150506200003a565b505062000474565b60006200011c6200011684620002b4565b6200028b565b9050808382526020820190508285604086028201111562000142576200014162000420565b5b60005b858110156200017657816200015b8882620001ca565b84526020840193506040830192505060018101905062000145565b5050509392505050565b600081519050620001918162000440565b92915050565b600082601f830112620001af57620001ae62000416565b5b8151620001c184826020860162000105565b91505092915050565b600060408284031215620001e357620001e26200041b565b5b620001ef60406200028b565b90506000620002018482850162000180565b6000830152506020620002178482850162000223565b60208301525092915050565b60008151905062000234816200045a565b92915050565b6000602082840312156200025357620002526200042a565b5b600082015167ffffffffffffffff81111562000274576200027362000425565b5b620002828482850162000197565b91505092915050565b600062000297620002aa565b9050620002a5828262000324565b919050565b6000604051905090565b600067ffffffffffffffff821115620002d257620002d1620003e7565b5b602082029050602081019050919050565b6000620002f082620002f7565b9050919050565b600073ffffffffffffffffffffffffffffffffffffffff82169050919050565b600060ff82169050919050565b6200032f826200042f565b810181811067ffffffffffffffff82111715620003515762000350620003e7565b5b80604052505050565b6000620003678262000317565b915060ff8214156200037e576200037d62000389565b5b600182019050919050565b7f4e487b7100000000000000000000000000000000000000000000000000000000600052601160045260246000fd5b7f4e487b7100000000000000000000000000000000000000000000000000000000600052603260045260246000fd5b7f4e487b7100000000000000000000000000000000000000000000000000000000600052604160045260246000fd5b600080fd5b600080fd5b600080fd5b600080fd5b600080fd5b6000601f19601f8301169050919050565b6200044b81620002e3565b81146200045757600080fd5b50565b620004658162000317565b81146200047157600080fd5b50565b61391380620004846000396000f3fe608060405234801561001057600080fd5b50600436106100b45760003560e01c806380bfc9a41161007157806380bfc9a41461019d5780639b24b3b0146101b9578063ac28eacd146101e9578063b9c78c2b14610219578063c7af7d5314610249578063e3c68bda14610265576100b4565b80631783efc3146100b95780632d69be98146100d557806343989f8514610105578063568ee8261461012157806375e618c91461013d578063781569531461016d575b600080fd5b6100d360048036038101906100ce9190612673565b610295565b005b6100ef60048036038101906100ea91906127d5565b610344565b6040516100fc9190612dda565b60405180910390f35b61011f600480360381019061011a91906126b3565b610377565b005b61013b60048036038101906101369190612583565b61042e565b005b61015760048036038101906101529190612529565b610587565b6040516101649190612fa9565b60405180910390f35b61018760048036038101906101829190612529565b6105b4565b6040516101949190612fa9565b60405180910390f35b6101b760048036038101906101b291906125c3565b6105e1565b005b6101d360048036038101906101ce9190612529565b6106e3565b6040516101e09190612f65565b60405180910390f35b61020360048036038101906101fe9190612529565b61078a565b6040516102109190612d11565b60405180910390f35b610233600480360381019061022e9190612529565b6107bd565b6040516102409190612f65565b60405180910390f35b610263600480360381019061025e919061275a565b6107dd565b005b61027f600480360381019061027a9190612529565b61096c565b60405161028c9190612fa9565b60405180910390f35b8161029e61098c565b73ffffffffffffffffffffffffffffffffffffffff166003600083815260200190815260200160002060009054906101000a900473ffffffffffffffffffffffffffffffffffffffff1673ffffffffffffffffffffffffffffffffffffffff1614610335576040517fbb9bf27800000000000000000000000000000000000000000000000000000000815260040160405180910390fd5b61033f8383610994565b505050565b60026020528060005260406000206000915054906101000a900473ffffffffffffffffffffffffffffffffffffffff1681565b8561038061098c565b73ffffffffffffffffffffffffffffffffffffffff166003600083815260200190815260200160002060009054906101000a900473ffffffffffffffffffffffffffffffffffffffff1673ffffffffffffffffffffffffffffffffffffffff1614610417576040517fbb9bf27800000000000000000000000000000000000000000000000000000000815260040160405180910390fd5b610425878787878787610a4b565b50505050505050565b8161043761098c565b73ffffffffffffffffffffffffffffffffffffffff166003600083815260200190815260200160002060009054906101000a900473ffffffffffffffffffffffffffffffffffffffff1673ffffffffffffffffffffffffffffffffffffffff16146104ce576040517fbb9bf27800000000000000000000000000000000000000000000000000000000815260040160405180910390fd5b816003600085815260200190815260200160002060006101000a81548173ffffffffffffffffffffffffffffffffffffffff021916908373ffffffffffffffffffffffffffffffffffffffff1602179055508173ffffffffffffffffffffffffffffffffffffffff1661053f61098c565b73ffffffffffffffffffffffffffffffffffffffff16847f0ba83579a0e79193ef649b9f5a8759d35af086ba62a3e207b52e4a8ae30d49e360405160405180910390a4505050565b60006001600083815260200190815260200160002060000160019054906101000a900460ff169050919050565b60006001600083815260200190815260200160002060000160009054906101000a900460ff169050919050565b60006105ec886106e3565b905060006105f989610587565b905060006106068a6105b4565b905060008260ff161415610646576040517f029f057900000000000000000000000000000000000000000000000000000000815260040160405180910390fd5b6000600260008460ff1660ff16815260200190815260200160002060009054906101000a900473ffffffffffffffffffffffffffffffffffffffff1690506106958a8a8a8a8a8a87898c610b0e565b61069e89610ebb565b8a7f102229041138505f4cecdadc8e3ac1cd92c55870c17371050fc00bdb088898018b6040516106ce9190612dbf565b60405180910390a25050505050505050505050565b60006001600083815260200190815260200160002073__$bb01d34dc76fba63df526a43121fcb267a$__63ce8f1f3590916040518263ffffffff1660e01b81526004016107309190612ed5565b60206040518083038186803b15801561074857600080fd5b505af415801561075c573d6000803e3d6000fd5b505050506040513d601f19601f820116820180604052508101906107809190612484565b60001c9050919050565b60036020528060005260406000206000915054906101000a900473ffffffffffffffffffffffffffffffffffffffff1681565b600060016000838152602001908152602001600020600201549050919050565b83600073ffffffffffffffffffffffffffffffffffffffff16600260008360ff1660ff16815260200190815260200160002060009054906101000a900473ffffffffffffffffffffffffffffffffffffffff1673ffffffffffffffffffffffffffffffffffffffff16141561087e576040517f1a08ae0600000000000000000000000000000000000000000000000000000000815260040160405180910390fd5b61088a86868685610ee9565b816004600088815260200190815260200160002060006101000a81548160ff021916908360ff160217905550826003600088815260200190815260200160002060006101000a81548173ffffffffffffffffffffffffffffffffffffffff021916908373ffffffffffffffffffffffffffffffffffffffff1602179055508273ffffffffffffffffffffffffffffffffffffffff16600073ffffffffffffffffffffffffffffffffffffffff16877f0ba83579a0e79193ef649b9f5a8759d35af086ba62a3e207b52e4a8ae30d49e360405160405180910390a4505050505050565b60046020528060005260406000206000915054906101000a900460ff1681565b600033905090565b600061099f83610587565b60ff1614156109da576040517f029f057900000000000000000000000000000000000000000000000000000000815260040160405180910390fd5b6109ff816001600085815260200190815260200160002061104890919063ffffffff16565b6000610a0a836106e3565b9050827f03fd27265b7dd1f55558bedc22a58fa3b10afb1be776e614bd5a7ba7b94994068383604051610a3e929190612f80565b60405180910390a2505050565b6000610a5687610587565b60ff161415610a91576040517f029f057900000000000000000000000000000000000000000000000000000000815260040160405180910390fd5b610abe8585858585600160008d81526020019081526020016000206113309095949392919063ffffffff16565b6000610ac9876106e3565b9050867fe270325ded177064d7bda473e6519ef40a291058c41286f71a6e4872f1e9ab5c8783604051610afd929190612f80565b60405180910390a250505050505050565b60008089815260200190815260200160002060009054906101000a900460ff1615610b65576040517f948d067400000000000000000000000000000000000000000000000000000000815260040160405180910390fd5b6000610b708a6116b6565b905060006040518060c00160405280876008806020026040519081016040528092919082600860200280828437600081840152601f19601f82011690508083019250505050505081526020018481526020018b81526020018381526020018a815260200189898080601f016020809104026020016040519081016040528093929190818152602001838380828437600081840152601f19601f82011690508083019250505050505050815250905060008173__$2d408c303a7e487061c2c4d5102d665f73$__63f0d4020d9091876040518363ffffffff1660e01b8152600401610c5b929190612f35565b60006040518083038186803b158015610c7357600080fd5b505af4158015610c87573d6000803e3d6000fd5b505050506040513d6000823e3d601f19601f82011682018060405250810190610cb091906124b1565b50905060008673ffffffffffffffffffffffffffffffffffffffff1663b4b764f260405180604001604052808b600060088110610cf057610cef6135ad565b5b602002013581526020018b600160088110610d0e57610d0d6135ad565b5b6020020135815250604051806040016040528060405180604001604052808e600260088110610d4057610d3f6135ad565b5b602002013581526020018e600360088110610d5e57610d5d6135ad565b5b6020020135815250815260200160405180604001604052808e600460088110610d8a57610d896135ad565b5b602002013581526020018e600560088110610da857610da76135ad565b5b602002013581525081525060405180604001604052808d600660088110610dd257610dd16135ad565b5b602002013581526020018d600760088110610df057610def6135ad565b5b6020020135815250868b6040518663ffffffff1660e01b8152600401610e1a959493929190612d47565b60206040518083038186803b158015610e3257600080fd5b505afa158015610e46573d6000803e3d6000fd5b505050506040513d601f19601f82011682018060405250810190610e6a9190612457565b905080610eac576040517f08c379a0000000000000000000000000000000000000000000000000000000008152600401610ea390612df5565b60405180910390fd5b50505050505050505050505050565b600160008083815260200190815260200160002060006101000a81548160ff02191690831515021790555050565b7f30644e72e131a029b85045b68181585d2833e84879b9709143e1f593f00000018410610f42576040517fa61c78ca00000000000000000000000000000000000000000000000000000000815260040160405180910390fd5b6000610f4d85610587565b60ff1614610f87576040517f8121725b00000000000000000000000000000000000000000000000000000000815260040160405180910390fd5b6001600085815260200190815260200160002073__$bb01d34dc76fba63df526a43121fcb267a$__638aac5ac890918585856040518563ffffffff1660e01b8152600401610fd89493929190612ef0565b60006040518083038186803b158015610ff057600080fd5b505af4158015611004573d6000803e3d6000fd5b50505050837fc3082aa494e9088c2c9f0fb62a0b6bd46e6699acb94cfba35be29b95a93f68c8848460405161103a929190612fc4565b60405180910390a250505050565b7f30644e72e131a029b85045b68181585d2833e84879b9709143e1f593f000000181106110aa576040517f08c379a00000000000000000000000000000000000000000000000000000000081526004016110a190612e35565b60405180910390fd5b8160000160019054906101000a900460ff1660026110c89190613280565b82600201541061110d576040517f08c379a000000000000000000000000000000000000000000000000000000000815260040161110490612eb5565b60405180910390fd5b600082600201549050600082905060005b8460000160019054906101000a900460ff1660ff168160ff16101561129557600060028461114c91906134ed565b14156111a157604051806040016040528083815260200161116f8360ff166116ed565b60001c8152508560030160008360ff16815260200190815260200160002090600261119b929190612135565b506111d3565b818560030160008360ff1681526020019081526020016000206001600281106111cd576111cc6135ad565b5b01819055505b73__$c71a83c115de0c7ed4ad66768f63425c95$__6329a5f2f68660030160008460ff1681526020019081526020016000206040518263ffffffff1660e01b81526004016112219190612da4565b60206040518083038186803b15801561123957600080fd5b505af415801561124d573d6000803e3d6000fd5b505050506040513d601f19601f820116820180604052508101906112719190612556565b915060028361128091906131fc565b9250808061128d906134b9565b91505061111e565b506000601e60018660000160029054906101000a900463ffffffff166112bb91906131c2565b6112c5919061351e565b9050808560000160026101000a81548163ffffffff021916908363ffffffff1602179055508160001b8560010160008363ffffffff168152602001908152602001600020819055506001856002016000828254611322919061316c565b925050819055505050505050565b61133e868686868686611dad565b61137d576040517f08c379a000000000000000000000000000000000000000000000000000000000815260040161137490612e15565b60405180910390fd5b600061138960006116ed565b60001c905060005b8760000160019054906101000a900460ff1660ff168160ff16101561167557600084848360ff168181106113c8576113c76135ad565b5b90506020020160208101906113dd91906127d5565b60ff161415611526578760030160008260ff168152602001908152602001600020600160028110611411576114106135ad565b5b015486868360ff16818110611429576114286135ad565b5b90506020020135141561146857818860030160008360ff168152602001908152602001600020600060028110611462576114616135ad565b5b01819055505b73__$c71a83c115de0c7ed4ad66768f63425c95$__6329a5f2f6604051806040016040528085815260200189898660ff168181106114a9576114a86135ad565b5b905060200201358152506040518263ffffffff1660e01b81526004016114cf9190612d2c565b60206040518083038186803b1580156114e757600080fd5b505af41580156114fb573d6000803e3d6000fd5b505050506040513d601f19601f8201168201806040525081019061151f9190612556565b9150611662565b8760030160008260ff168152602001908152602001600020600060028110611551576115506135ad565b5b015486868360ff16818110611569576115686135ad565b5b9050602002013514156115a857818860030160008360ff1681526020019081526020016000206001600281106115a2576115a16135ad565b5b01819055505b73__$c71a83c115de0c7ed4ad66768f63425c95$__6329a5f2f6604051806040016040528089898660ff168181106115e3576115e26135ad565b5b905060200201358152602001858152506040518263ffffffff1660e01b815260040161160f9190612d2c565b60206040518083038186803b15801561162757600080fd5b505af415801561163b573d6000803e3d6000fd5b505050506040513d601f19601f8201168201806040525081019061165f9190612556565b91505b808061166d906134b9565b915050611391565b508060001b8760010160008960000160029054906101000a900463ffffffff1663ffffffff1681526020019081526020016000208190555050505050505050565b60006008826040516020016116cb9190612cf6565b6040516020818303038152906040528051906020012060001c901c9050919050565b600080821415611722577f2fe54c60d3acabf3343a35b6eba15db4821b340f76e741e2249685ed4899af6c60001b9050611da8565b6001821415611756577f13e37f2d6cb86c78ccc1788607c2b199788c6bb0a615a21f2e7a8e88384222f860001b9050611da8565b600282141561178a577f217126fa352c326896e8c2803eec8fd63ad50cf65edfef27a41a9e32dc62276560001b9050611da8565b60038214156117be577f0e28a61a9b3e91007d5a9e3ada18e1b24d6d230c618388ee5df34cacd7397eee60001b9050611da8565b60048214156117f2577f27953447a6979839536badc5425ed15fadb0e292e9bc36f92f0aa5cfa501358760001b9050611da8565b6005821415611826577f194191edbfb91d10f6a7afd315f33095410c7801c47175c2df6dc2cce0e3affc60001b9050611da8565b600682141561185a577f1733dece17d71190516dbaf1927936fa643dc7079fc0cc731de9d6845a47741f60001b9050611da8565b600782141561188e577f267855a7dc75db39d81d17f95d0a7aa572bf5ae19f4db0e84221d2b2ef99921960001b9050611da8565b60088214156118c2577f1184e11836b4c36ad8238a340ecc0985eeba665327e33e9b0e3641027c27620d60001b9050611da8565b60098214156118f6577f0702ab83a135d7f55350ab1bfaa90babd8fc1d2b3e6a7215381a7b2213d6c5ce60001b9050611da8565b600a82141561192a577f2eecc0de814cfd8c57ce882babb2e30d1da56621aef7a47f3291cffeaec26ad760001b9050611da8565b600b82141561195e577f280bc02145c155d5833585b6c7b08501055157dd30ce005319621dc462d33b4760001b9050611da8565b600c821415611992577f045132221d1fa0a7f4aed8acd2cbec1e2189b7732ccb2ec272b9c60f0d5afc5b60001b9050611da8565b600d8214156119c6577f27f427ccbf58a44b1270abbe4eda6ba53bd6ac4d88cf1e00a13c4371ce71d36660001b9050611da8565b600e8214156119fa577f1617eaae5064f26e8f8a6493ae92bfded7fde71b65df1ca6d5dcec0df70b2cef60001b9050611da8565b600f821415611a2e577f20c6b400d0ea1b15435703c31c31ee63ad7ba5c8da66cec2796feacea575abca60001b9050611da8565b6010821415611a62577f09589ddb438723f53a8e57bdada7c5f8ed67e8fece3889a73618732965645eec60001b9050611da8565b6011821415611a95577e64b6a738a5ff537db7b220f3394f0ecbd35bfd355c5425dc1166bf3236079b60001b9050611da8565b6012821415611ac9577f095de56281b1d5055e897c3574ff790d5ee81dbc5df784ad2d67795e557c9e9f60001b9050611da8565b6013821415611afd577f11cf2e2887aa21963a6ec14289183efe4d4c60f14ecd3d6fe0beebdf855a9b6360001b9050611da8565b6014821415611b31577f2b0f6fc0179fa65b6f73627c0e1e84c7374d2eaec44c9a48f2571393ea77bcbb60001b9050611da8565b6015821415611b65577f16fdb637c2abf9c0f988dbf2fd64258c46fb6a273d537b2cf1603ea460b1327960001b9050611da8565b6016821415611b99577f21bbd7e944f6124dad4c376df9cc12e7ca66e47dff703ff7cedb1a454edcf0ff60001b9050611da8565b6017821415611bcd577f2784f8220b1c963e468f590f137baaa1625b3b92a27ad9b6e84eb0d3454d996260001b9050611da8565b6018821415611c01577f16ace1a65b7534142f8cc1aad810b3d6a7a74ca905d9c275cb98ba57e509fc1060001b9050611da8565b6019821415611c35577f2328068c6a8c24265124debd8fe10d3f29f0665ea725a65e3638f6192a96a01360001b9050611da8565b601a821415611c69577f2ddb991be1f028022411b4c4d2c22043e5e751c120736f00adf54acab1c9ac1460001b9050611da8565b601b821415611c9d577f0113798410eaeb95056a464f70521eb58377c0155f2fe518a5594d38cc209cc060001b9050611da8565b601c821415611cd1577f202d1ae61526f0d0d01ef80fb5d4055a7af45721024c2c24cffd6a3798f54d5060001b9050611da8565b601d821415611d05577f23ab323453748129f2765f79615022f5bebd6f4096a796300aab049a60b0f18760001b9050611da8565b601e821415611d39577f1f15585f8947e378bcf8bd918716799da909acdb944c57150b1eb4565fda8aa060001b9050611da8565b601f821415611d6d577f1eb064b21055ac6a350cf41eb30e4ce2cb19680217df3a243617c2838185ad0660001b9050611da8565b6040517f08c379a0000000000000000000000000000000000000000000000000000000008152600401611d9f90612e95565b60405180910390fd5b919050565b60007f30644e72e131a029b85045b68181585d2833e84879b9709143e1f593f00000018610611e11576040517f08c379a0000000000000000000000000000000000000000000000000000000008152600401611e0890612e35565b60405180910390fd5b8660000160019054906101000a900460ff1660ff1683839050148015611e4d57508660000160019054906101000a900460ff1660ff1685859050145b611e8c576040517f08c379a0000000000000000000000000000000000000000000000000000000008152600401611e8390612e75565b60405180910390fd5b600086905060005b8860000160019054906101000a900460ff1660ff168160ff1610156120f2577f30644e72e131a029b85045b68181585d2833e84879b9709143e1f593f000000187878360ff16818110611eea57611ee96135ad565b5b9050602002013510611f31576040517f08c379a0000000000000000000000000000000000000000000000000000000008152600401611f2890612e55565b60405180910390fd5b600085858360ff16818110611f4957611f486135ad565b5b9050602002016020810190611f5e91906127d5565b60ff1614156120255773__$c71a83c115de0c7ed4ad66768f63425c95$__6329a5f2f660405180604001604052808581526020018a8a8660ff16818110611fa857611fa76135ad565b5b905060200201358152506040518263ffffffff1660e01b8152600401611fce9190612d2c565b60206040518083038186803b158015611fe657600080fd5b505af4158015611ffa573d6000803e3d6000fd5b505050506040513d601f19601f8201168201806040525081019061201e9190612556565b91506120df565b73__$c71a83c115de0c7ed4ad66768f63425c95$__6329a5f2f660405180604001604052808a8a8660ff168181106120605761205f6135ad565b5b905060200201358152602001858152506040518263ffffffff1660e01b815260040161208c9190612d2c565b60206040518083038186803b1580156120a457600080fd5b505af41580156120b8573d6000803e3d6000fd5b505050506040513d601f19601f820116820180604052508101906120dc9190612556565b91505b80806120ea906134b9565b915050611e94565b508760010160008960000160029054906101000a900463ffffffff1663ffffffff1681526020019081526020016000205460001c81149150509695505050505050565b8260028101928215612164579160200282015b82811115612163578251825591602001919060010190612148565b5b5090506121719190612175565b5090565b5b8082111561218e576000816000905550600101612176565b5090565b60006121a56121a084613012565b612fed565b905080838252602082019050828560208602820111156121c8576121c7613628565b5b60005b858110156121f857816121de888261237f565b8452602084019350602083019250506001810190506121cb565b5050509392505050565b60006122156122108461303e565b612fed565b9050828152602081018484840111156122315761223061362d565b5b61223c84828561343b565b509392505050565b6000813590506122538161386a565b92915050565b600082601f83011261226e5761226d613623565b5b815161227e848260208601612192565b91505092915050565b6000819050826020600802820111156122a3576122a2613628565b5b92915050565b60008083601f8401126122bf576122be613623565b5b8235905067ffffffffffffffff8111156122dc576122db61361e565b5b6020830191508360208202830111156122f8576122f7613628565b5b9250929050565b60008083601f84011261231557612314613623565b5b8235905067ffffffffffffffff8111156123325761233161361e565b5b60208301915083602082028301111561234e5761234d613628565b5b9250929050565b60008151905061236481613881565b92915050565b60008135905061237981613898565b92915050565b60008151905061238e81613898565b92915050565b60008083601f8401126123aa576123a9613623565b5b8235905067ffffffffffffffff8111156123c7576123c661361e565b5b6020830191508360018202830111156123e3576123e2613628565b5b9250929050565b600082601f8301126123ff576123fe613623565b5b815161240f848260208601612202565b91505092915050565b600081359050612427816138af565b92915050565b60008151905061243c816138af565b92915050565b600081359050612451816138c6565b92915050565b60006020828403121561246d5761246c613637565b5b600061247b84828501612355565b91505092915050565b60006020828403121561249a57612499613637565b5b60006124a88482850161237f565b91505092915050565b600080604083850312156124c8576124c7613637565b5b600083015167ffffffffffffffff8111156124e6576124e5613632565b5b6124f2858286016123ea565b925050602083015167ffffffffffffffff81111561251357612512613632565b5b61251f85828601612259565b9150509250929050565b60006020828403121561253f5761253e613637565b5b600061254d84828501612418565b91505092915050565b60006020828403121561256c5761256b613637565b5b600061257a8482850161242d565b91505092915050565b6000806040838503121561259a57612599613637565b5b60006125a885828601612418565b92505060206125b985828601612244565b9150509250929050565b60008060008060008060006101a0888a0312156125e3576125e2613637565b5b60006125f18a828b01612418565b97505060206126028a828b0161236a565b96505060406126138a828b01612418565b95505060606126248a828b01612418565b945050608088013567ffffffffffffffff81111561264557612644613632565b5b6126518a828b01612394565b935093505060a06126648a828b01612287565b91505092959891949750929550565b6000806040838503121561268a57612689613637565b5b600061269885828601612418565b92505060206126a985828601612418565b9150509250929050565b600080600080600080608087890312156126d0576126cf613637565b5b60006126de89828a01612418565b96505060206126ef89828a01612418565b955050604087013567ffffffffffffffff8111156127105761270f613632565b5b61271c89828a016122a9565b9450945050606087013567ffffffffffffffff81111561273f5761273e613632565b5b61274b89828a016122ff565b92509250509295509295509295565b600080600080600060a0868803121561277657612775613637565b5b600061278488828901612418565b955050602061279588828901612442565b94505060406127a688828901612418565b93505060606127b788828901612244565b92505060806127c888828901612442565b9150509295509295909350565b6000602082840312156127eb576127ea613637565b5b60006127f984828501612442565b91505092915050565b600061280e83836128b0565b60408301905092915050565b60006128268383612c9c565b60208301905092915050565b600061283e8383612cc9565b60208301905092915050565b612853816133a8565b82525050565b61286281613097565b61286c8184613102565b92506128778261306f565b8060005b838110156128a857815161288f8782612802565b965061289a836130ce565b92505060018101905061287b565b505050505050565b6128b9816130a2565b6128c3818461310d565b92506128ce82613079565b8060005b838110156128ff5781516128e6878261281a565b96506128f1836130db565b9250506001810190506128d2565b505050505050565b612910816130a2565b61291a8184613118565b925061292582613079565b8060005b8381101561295657815161293d878261281a565b9650612948836130db565b925050600181019050612929565b505050505050565b612967816130a2565b6129718184613123565b925061297c82613079565b8060005b838110156129ad5781516129948782612832565b965061299f836130db565b925050600181019050612980565b505050505050565b6129be816130ad565b6129c88184613123565b92506129d382613083565b8060005b83811015612a0b576129e88261360b565b6129f28782612832565b96506129fd836130e8565b9250506001810190506129d7565b505050505050565b612a1c816130b8565b612a26818461312e565b9250612a318261308d565b8060005b83811015612a62578151612a498782612832565b9650612a54836130f5565b925050600181019050612a35565b505050505050565b612a73816133c6565b82525050565b612a8a612a85826133c6565b6134e3565b82525050565b6000612a9b826130c3565b612aa58185613139565b9350612ab581856020860161343b565b612abe8161363c565b840191505092915050565b6000612ad4826130c3565b612ade818561314a565b9350612aee81856020860161343b565b612af78161363c565b840191505092915050565b612b0b81613417565b82525050565b6000612b1e600e8361315b565b9150612b2982613667565b602082019050919050565b6000612b41603b8361315b565b9150612b4c82613690565b604082019050919050565b6000612b6460408361315b565b9150612b6f826136df565b604082019050919050565b6000612b8760488361315b565b9150612b928261372e565b606082019050919050565b6000612baa603c8361315b565b9150612bb5826137a3565b604082019050919050565b6000612bcd60138361315b565b9150612bd8826137f2565b602082019050919050565b6000612bf0602b8361315b565b9150612bfb8261381b565b604082019050919050565b8082525050565b60006101a083016000830151612c266000860182612a13565b506020830151612c3a610100860182612cc9565b506040830151612c4e610120860182612cc9565b506060830151612c62610140860182612cc9565b506080830151612c76610160860182612cc9565b5060a0830151848203610180860152612c8f8282612ac9565b9150508091505092915050565b612ca5816133f0565b82525050565b612cb4816133f0565b82525050565b612cc3816133f0565b82525050565b612cd2816133f0565b82525050565b612ce18161340a565b82525050565b612cf08161340a565b82525050565b6000612d028284612a79565b60208201915081905092915050565b6000602082019050612d26600083018461284a565b92915050565b6000604082019050612d41600083018461295e565b92915050565b600061014082019050612d5d6000830188612907565b612d6a6040830187612859565b612d7760c0830186612907565b818103610100830152612d8a8185612a90565b9050612d9a610120830184612cd8565b9695505050505050565b6000604082019050612db960008301846129b5565b92915050565b6000602082019050612dd46000830184612a6a565b92915050565b6000602082019050612def6000830184612b02565b92915050565b60006020820190508181036000830152612e0e81612b11565b9050919050565b60006020820190508181036000830152612e2e81612b34565b9050919050565b60006020820190508181036000830152612e4e81612b57565b9050919050565b60006020820190508181036000830152612e6e81612b7a565b9050919050565b60006020820190508181036000830152612e8e81612b9d565b9050919050565b60006020820190508181036000830152612eae81612bc0565b9050919050565b60006020820190508181036000830152612ece81612be3565b9050919050565b6000602082019050612eea6000830184612c06565b92915050565b6000608082019050612f056000830187612c06565b612f126020830186612ce7565b612f1f6040830185612cba565b612f2c6060830184612ce7565b95945050505050565b60006040820190508181036000830152612f4f8185612c0d565b9050612f5e6020830184612ce7565b9392505050565b6000602082019050612f7a6000830184612cab565b92915050565b6000604082019050612f956000830185612cab565b612fa26020830184612cab565b9392505050565b6000602082019050612fbe6000830184612cd8565b92915050565b6000604082019050612fd96000830185612cd8565b612fe66020830184612cab565b9392505050565b6000612ff7613008565b90506130038282613488565b919050565b6000604051905090565b600067ffffffffffffffff82111561302d5761302c6135dc565b5b602082029050602081019050919050565b600067ffffffffffffffff821115613059576130586135dc565b5b6130628261363c565b9050602081019050919050565b6000819050919050565b6000819050919050565b6000819050919050565b6000819050919050565b600060029050919050565b600060029050919050565b600060029050919050565b600060089050919050565b600081519050919050565b6000602082019050919050565b6000602082019050919050565b6000600182019050919050565b6000602082019050919050565b600081905092915050565b600081905092915050565b600081905092915050565b600081905092915050565b600081905092915050565b600082825260208201905092915050565b600082825260208201905092915050565b600082825260208201905092915050565b6000613177826133f0565b9150613182836133f0565b9250827fffffffffffffffffffffffffffffffffffffffffffffffffffffffffffffffff038211156131b7576131b661354f565b5b828201905092915050565b60006131cd826133fa565b91506131d8836133fa565b92508263ffffffff038211156131f1576131f061354f565b5b828201905092915050565b6000613207826133f0565b9150613212836133f0565b9250826132225761322161357e565b5b828204905092915050565b6000808291508390505b6001851115613277578086048111156132535761325261354f565b5b60018516156132625780820291505b80810290506132708561365a565b9450613237565b94509492505050565b600061328b826133f0565b91506132968361340a565b92506132c37fffffffffffffffffffffffffffffffffffffffffffffffffffffffffffffffff84846132cb565b905092915050565b6000826132db5760019050613397565b816132e95760009050613397565b81600181146132ff576002811461330957613338565b6001915050613397565b60ff84111561331b5761331a61354f565b5b8360020a9150848211156133325761333161354f565b5b50613397565b5060208310610133831016604e8410600b841016171561336d5782820a9050838111156133685761336761354f565b5b613397565b61337a848484600161322d565b925090508184048111156133915761339061354f565b5b81810290505b9392505050565b6000819050919050565b60006133b3826133d0565b9050919050565b60008115159050919050565b6000819050919050565b600073ffffffffffffffffffffffffffffffffffffffff82169050919050565b6000819050919050565b600063ffffffff82169050919050565b600060ff82169050919050565b600061342282613429565b9050919050565b6000613434826133d0565b9050919050565b60005b8381101561345957808201518184015260208101905061343e565b83811115613468576000848401525b50505050565b600061348161347c8361364d565b61339e565b9050919050565b6134918261363c565b810181811067ffffffffffffffff821117156134b0576134af6135dc565b5b80604052505050565b60006134c48261340a565b915060ff8214156134d8576134d761354f565b5b600182019050919050565b6000819050919050565b60006134f8826133f0565b9150613503836133f0565b9250826135135761351261357e565b5b828206905092915050565b6000613529826133fa565b9150613534836133fa565b9250826135445761354361357e565b5b828206905092915050565b7f4e487b7100000000000000000000000000000000000000000000000000000000600052601160045260246000fd5b7f4e487b7100000000000000000000000000000000000000000000000000000000600052601260045260246000fd5b7f4e487b7100000000000000000000000000000000000000000000000000000000600052603260045260246000fd5b7f4e487b7100000000000000000000000000000000000000000000000000000000600052604160045260246000fd5b6000613617825461346e565b9050919050565b600080fd5b600080fd5b600080fd5b600080fd5b600080fd5b600080fd5b6000601f19601f8301169050919050565b60008160001c9050919050565b60008160011c9050919050565b7f496e76616c696450726f6f662829000000000000000000000000000000000000600082015250565b7f4c696e6b61626c65496e6372656d656e74616c42696e617279547265653a206c60008201527f656166206973206e6f742070617274206f662074686520747265650000000000602082015250565b7f4c696e6b61626c65496e6372656d656e74616c42696e617279547265653a206c60008201527f656166206d757374206265203c20534e41524b5f5343414c41525f4649454c44602082015250565b7f4c696e6b61626c65496e6372656d656e74616c42696e617279547265653a207360008201527f69626c696e67206e6f6465206d757374206265203c20534e41524b5f5343414c60208201527f41525f4649454c44000000000000000000000000000000000000000000000000604082015250565b7f4c696e6b61626c65496e6372656d656e74616c42696e617279547265653a206c60008201527f656e677468206f662070617468206973206e6f7420636f727265637400000000602082015250565b7f496e646578206f7574206f6620626f756e647300000000000000000000000000600082015250565b7f4c696e6b61626c65496e6372656d656e74616c42696e617279547265653a207460008201527f7265652069732066756c6c000000000000000000000000000000000000000000602082015250565b613873816133a8565b811461387e57600080fd5b50565b61388a816133ba565b811461389557600080fd5b50565b6138a1816133c6565b81146138ac57600080fd5b50565b6138b8816133f0565b81146138c357600080fd5b50565b6138cf8161340a565b81146138da57600080fd5b5056fea2646970667358221220b6f46cd879fb5337a1c5a918b78a6c4786ecd1bcb41442d219ec1d0073bedc9064736f6c63430008050033",
  "linkReferences": {
    "@zk-kit/incremental-merkle-tree.sol/Hashes.sol": {
      "PoseidonT3": [
        {
          "length": 20,
          "start": 5721
        },
        {
          "length": 20,
          "start": 6382
        },
        {
          "length": 20,
          "start": 6702
        },
        {
          "length": 20,
          "start": 9197
        },
        {
          "length": 20,
          "start": 9387
        }
      ]
    },
    "contracts/base/LinkableIncrementalBinaryTree.sol": {
      "LinkableIncrementalBinaryTree": [
        {
          "length": 20,
          "start": 2942
        },
        {
          "length": 20,
          "start": 5152
        }
      ]
    },
    "contracts/base/SemaphoreInputEncoder.sol": {
      "SemaphoreInputEncoder": [
        {
          "length": 20,
          "start": 4263
        }
      ]
    }
  },
  "deployedLinkReferences": {
    "@zk-kit/incremental-merkle-tree.sol/Hashes.sol": {
      "PoseidonT3": [
        {
          "length": 20,
          "start": 4565
        },
        {
          "length": 20,
          "start": 5226
        },
        {
          "length": 20,
          "start": 5546
        },
        {
          "length": 20,
          "start": 8041
        },
        {
          "length": 20,
          "start": 8231
        }
      ]
    },
    "contracts/base/LinkableIncrementalBinaryTree.sol": {
      "LinkableIncrementalBinaryTree": [
        {
          "length": 20,
          "start": 1786
        },
        {
          "length": 20,
          "start": 3996
        }
      ]
    },
    "contracts/base/SemaphoreInputEncoder.sol": {
      "SemaphoreInputEncoder": [
        {
          "length": 20,
          "start": 3107
        }
      ]
    }
  }
}