{
  "_format": "hh-sol-artifact-1",
  "contractName": "SemaphoreWhistleblowing",
  "sourceName": "contracts/extensions/SemaphoreWhistleblowing.sol",
  "abi": [
    {
      "inputs": [
        {
          "internalType": "uint8[]",
          "name": "depths",
          "type": "uint8[]"
        },
        {
          "internalType": "address[]",
          "name": "verifierAddresses",
          "type": "address[]"
        }
      ],
      "stateMutability": "nonpayable",
      "type": "constructor"
    },
    {
      "inputs": [],
      "name": "Semaphore__GroupAlreadyExists",
      "type": "error"
    },
    {
      "inputs": [],
      "name": "Semaphore__GroupDoesNotExist",
      "type": "error"
    },
    {
      "inputs": [],
      "name": "Semaphore__GroupIdIsNotLessThanSnarkScalarField",
      "type": "error"
    },
    {
      "inputs": [],
      "name": "Semaphore__YouAreUsingTheSameNillifierTwice",
      "type": "error"
    },
    {
      "anonymous": false,
      "inputs": [
        {
          "components": [
            {
              "internalType": "uint256",
              "name": "id",
              "type": "uint256"
            },
            {
              "internalType": "uint8",
              "name": "maxEdges",
              "type": "uint8"
            }
          ],
          "indexed": false,
          "internalType": "struct ISemaphoreWhistleblowing.Entity",
          "name": "entity",
          "type": "tuple"
        },
        {
          "indexed": true,
          "internalType": "address",
          "name": "editor",
          "type": "address"
        }
      ],
      "name": "EntityCreated",
      "type": "event"
    },
    {
      "anonymous": false,
      "inputs": [
        {
          "indexed": true,
          "internalType": "uint256",
          "name": "groupId",
          "type": "uint256"
        },
        {
          "indexed": false,
          "internalType": "uint8",
          "name": "depth",
          "type": "uint8"
        },
        {
          "indexed": false,
          "internalType": "uint256",
          "name": "zeroValue",
          "type": "uint256"
        }
      ],
      "name": "GroupCreated",
      "type": "event"
    },
    {
      "anonymous": false,
      "inputs": [
        {
          "indexed": true,
          "internalType": "uint256",
          "name": "entityId",
          "type": "uint256"
        },
        {
          "indexed": false,
          "internalType": "bytes32",
          "name": "leak",
          "type": "bytes32"
        }
      ],
      "name": "LeakPublished",
      "type": "event"
    },
    {
      "anonymous": false,
      "inputs": [
        {
          "indexed": true,
          "internalType": "uint256",
          "name": "groupId",
          "type": "uint256"
        },
        {
          "indexed": false,
          "internalType": "uint256",
          "name": "identityCommitment",
          "type": "uint256"
        },
        {
          "indexed": false,
          "internalType": "uint256",
          "name": "root",
          "type": "uint256"
        }
      ],
      "name": "MemberAdded",
      "type": "event"
    },
    {
      "anonymous": false,
      "inputs": [
        {
          "indexed": true,
          "internalType": "uint256",
          "name": "groupId",
          "type": "uint256"
        },
        {
          "indexed": false,
          "internalType": "uint256",
          "name": "identityCommitment",
          "type": "uint256"
        },
        {
          "indexed": false,
          "internalType": "uint256",
          "name": "root",
          "type": "uint256"
        }
      ],
      "name": "MemberRemoved",
      "type": "event"
    },
    {
      "anonymous": false,
      "inputs": [
        {
          "indexed": false,
          "internalType": "uint256",
          "name": "nullifierHash",
          "type": "uint256"
        }
      ],
      "name": "NullifierHashAdded",
      "type": "event"
    },
    {
      "inputs": [
        {
          "internalType": "uint256",
          "name": "entityId",
          "type": "uint256"
        },
        {
          "internalType": "uint256",
          "name": "identityCommitment",
          "type": "uint256"
        }
      ],
      "name": "addWhistleblower",
      "outputs": [],
      "stateMutability": "nonpayable",
      "type": "function"
    },
    {
      "inputs": [
        {
          "internalType": "uint256",
          "name": "entityId",
          "type": "uint256"
        },
        {
          "internalType": "uint8",
          "name": "depth",
          "type": "uint8"
        },
        {
          "internalType": "uint256",
          "name": "zeroValue",
          "type": "uint256"
        },
        {
          "internalType": "address",
          "name": "editor",
          "type": "address"
        },
        {
          "internalType": "uint8",
          "name": "maxEdges",
          "type": "uint8"
        }
      ],
      "name": "createEntity",
      "outputs": [],
      "stateMutability": "nonpayable",
      "type": "function"
    },
    {
      "inputs": [
        {
          "internalType": "uint256",
          "name": "groupId",
          "type": "uint256"
        }
      ],
      "name": "getDepth",
      "outputs": [
        {
          "internalType": "uint8",
          "name": "",
          "type": "uint8"
        }
      ],
      "stateMutability": "view",
      "type": "function"
    },
    {
      "inputs": [
        {
          "internalType": "uint256",
          "name": "groupId",
          "type": "uint256"
        }
      ],
      "name": "getMaxEdges",
      "outputs": [
        {
          "internalType": "uint8",
          "name": "",
          "type": "uint8"
        }
      ],
      "stateMutability": "view",
      "type": "function"
    },
    {
      "inputs": [
        {
          "internalType": "uint256",
          "name": "groupId",
          "type": "uint256"
        }
      ],
      "name": "getNumberOfLeaves",
      "outputs": [
        {
          "internalType": "uint256",
          "name": "",
          "type": "uint256"
        }
      ],
      "stateMutability": "view",
      "type": "function"
    },
    {
      "inputs": [
        {
          "internalType": "uint256",
          "name": "groupId",
          "type": "uint256"
        }
      ],
      "name": "getRoot",
      "outputs": [
        {
          "internalType": "uint256",
          "name": "",
          "type": "uint256"
        }
      ],
      "stateMutability": "view",
      "type": "function"
    },
    {
      "inputs": [
        {
          "internalType": "bytes32",
          "name": "leak",
          "type": "bytes32"
        },
        {
          "internalType": "uint256",
          "name": "nullifierHash",
          "type": "uint256"
        },
        {
          "internalType": "uint256",
          "name": "entityId",
          "type": "uint256"
        },
        {
          "internalType": "bytes",
          "name": "roots",
          "type": "bytes"
        },
        {
          "internalType": "uint256[8]",
          "name": "proof",
          "type": "uint256[8]"
        }
      ],
      "name": "publishLeak",
      "outputs": [],
      "stateMutability": "nonpayable",
      "type": "function"
    },
    {
      "inputs": [
        {
          "internalType": "uint256",
          "name": "entityId",
          "type": "uint256"
        },
        {
          "internalType": "uint256",
          "name": "identityCommitment",
          "type": "uint256"
        },
        {
          "internalType": "uint256[]",
          "name": "proofSiblings",
          "type": "uint256[]"
        },
        {
          "internalType": "uint8[]",
          "name": "proofPathIndices",
          "type": "uint8[]"
        }
      ],
      "name": "removeWhistleblower",
      "outputs": [],
      "stateMutability": "nonpayable",
      "type": "function"
    }
  ],
  "bytecode": "0x60806040523480156200001157600080fd5b5060405162003d6c38038062003d6c8339818101604052810190620000379190620002cf565b80518251146200007e576040517f08c379a000000000000000000000000000000000000000000000000000000000815260040162000075906200037b565b60405180910390fd5b60005b82518160ff1610156200013c57818160ff1681518110620000a757620000a66200050a565b5b602002602001015160026000858460ff1681518110620000cc57620000cb6200050a565b5b602002602001015160ff1660ff16815260200190815260200160002060006101000a81548173ffffffffffffffffffffffffffffffffffffffff021916908373ffffffffffffffffffffffffffffffffffffffff16021790555080806200013390620004ac565b91505062000081565b50505062000636565b60006200015c6200015684620003c6565b6200039d565b905080838252602082019050828560208602820111156200018257620001816200056d565b5b60005b85811015620001b657816200019b88826200023b565b84526020840193506020830192505060018101905062000185565b5050509392505050565b6000620001d7620001d184620003f5565b6200039d565b90508083825260208201905082856020860282011115620001fd57620001fc6200056d565b5b60005b85811015620002315781620002168882620002b8565b84526020840193506020830192505060018101905062000200565b5050509392505050565b6000815190506200024c8162000602565b92915050565b600082601f8301126200026a576200026962000568565b5b81516200027c84826020860162000145565b91505092915050565b600082601f8301126200029d576200029c62000568565b5b8151620002af848260208601620001c0565b91505092915050565b600081519050620002c9816200061c565b92915050565b60008060408385031215620002e957620002e862000577565b5b600083015167ffffffffffffffff8111156200030a576200030962000572565b5b620003188582860162000285565b925050602083015167ffffffffffffffff8111156200033c576200033b62000572565b5b6200034a8582860162000252565b9150509250929050565b60006200036360478362000424565b915062000370826200058d565b606082019050919050565b60006020820190508181036000830152620003968162000354565b9050919050565b6000620003a9620003bc565b9050620003b7828262000476565b919050565b6000604051905090565b600067ffffffffffffffff821115620003e457620003e362000539565b5b602082029050602081019050919050565b600067ffffffffffffffff82111562000413576200041262000539565b5b602082029050602081019050919050565b600082825260208201905092915050565b6000620004428262000449565b9050919050565b600073ffffffffffffffffffffffffffffffffffffffff82169050919050565b600060ff82169050919050565b62000481826200057c565b810181811067ffffffffffffffff82111715620004a357620004a262000539565b5b80604052505050565b6000620004b98262000469565b915060ff821415620004d057620004cf620004db565b5b600182019050919050565b7f4e487b7100000000000000000000000000000000000000000000000000000000600052601160045260246000fd5b7f4e487b7100000000000000000000000000000000000000000000000000000000600052603260045260246000fd5b7f4e487b7100000000000000000000000000000000000000000000000000000000600052604160045260246000fd5b600080fd5b600080fd5b600080fd5b600080fd5b6000601f19601f8301169050919050565b7f53656d6170686f726557686973746c65626c6f77696e673a20706172616d657460008201527f657273206c6973747320646f6573206e6f742068617665207468652073616d6560208201527f206c656e67746800000000000000000000000000000000000000000000000000604082015250565b6200060d8162000435565b81146200061957600080fd5b50565b620006278162000469565b81146200063357600080fd5b50565b61372680620006466000396000f3fe608060405234801561001057600080fd5b50600436106100885760003560e01c80637b2b13b61161005b5780637b2b13b6146101255780638fe03587146101415780639b24b3b01461015d578063b9c78c2b1461018d57610088565b806307f257c61461008d5780635027000d146100a957806375e618c9146100c557806378156953146100f5575b600080fd5b6100a760048036038101906100a29190612468565b6101bd565b005b6100c360048036038101906100be91906123c1565b61035a565b005b6100df60048036038101906100da9190612327565b6103fd565b6040516100ec9190612d42565b60405180910390f35b61010f600480360381019061010a9190612327565b61042a565b60405161011c9190612d42565b60405180910390f35b61013f600480360381019061013a9190612214565b610457565b005b61015b60048036038101906101569190612381565b61059e565b005b61017760048036038101906101729190612327565b610639565b6040516101849190612cfe565b60405180910390f35b6101a760048036038101906101a29190612327565b6106e0565b6040516101b49190612cfe565b60405180910390f35b600073ffffffffffffffffffffffffffffffffffffffff16600260008660ff1660ff16815260200190815260200160002060009054906101000a900473ffffffffffffffffffffffffffffffffffffffff1673ffffffffffffffffffffffffffffffffffffffff161415610266576040517f08c379a000000000000000000000000000000000000000000000000000000000815260040161025d90612bb3565b60405180910390fd5b61027285858584610700565b61027a611e7b565b8581600001818152505081816020019060ff16908160ff168152505080600360008573ffffffffffffffffffffffffffffffffffffffff1673ffffffffffffffffffffffffffffffffffffffff1681526020019081526020016000206000820151816000015560208201518160010160006101000a81548160ff021916908360ff1602179055509050508273ffffffffffffffffffffffffffffffffffffffff167fff730dd1cf5f7026a954880f5cc68b6bd5017b1beb9d92e0552c48b2fdd051628260405161034a9190612c53565b60405180910390a2505050505050565b856003600061036761085f565b73ffffffffffffffffffffffffffffffffffffffff1673ffffffffffffffffffffffffffffffffffffffff1681526020019081526020016000206000015481146103e6576040517f08c379a00000000000000000000000000000000000000000000000000000000081526004016103dd90612bd3565b60405180910390fd5b6103f4878787878787610867565b50505050505050565b60006001600083815260200190815260200160002060000160019054906101000a900460ff169050919050565b60006001600083815260200190815260200160002060000160009054906101000a900460ff169050919050565b836003600061046461085f565b73ffffffffffffffffffffffffffffffffffffffff1673ffffffffffffffffffffffffffffffffffffffff1681526020019081526020016000206000015481146104e3576040517f08c379a00000000000000000000000000000000000000000000000000000000081526004016104da90612bd3565b60405180910390fd5b60006104ee86610639565b905060006104fb876103fd565b905060006105088861042a565b90506000600260008460ff1660ff16815260200190815260200160002060009054906101000a900473ffffffffffffffffffffffffffffffffffffffff1690506105598b8b8b8b8b8b87898c61092a565b887ff3fa3ff7a3348de75b04ecec5ac199157e2b877c68518dd37b48751b986ad7898c6040516105899190612b18565b60405180910390a25050505050505050505050565b81600360006105ab61085f565b73ffffffffffffffffffffffffffffffffffffffff1673ffffffffffffffffffffffffffffffffffffffff16815260200190815260200160002060000154811461062a576040517f08c379a000000000000000000000000000000000000000000000000000000000815260040161062190612bd3565b60405180910390fd5b6106348383610cd7565b505050565b60006001600083815260200190815260200160002073__$bb01d34dc76fba63df526a43121fcb267a$__63ce8f1f3590916040518263ffffffff1660e01b81526004016106869190612c6e565b60206040518083038186803b15801561069e57600080fd5b505af41580156106b2573d6000803e3d6000fd5b505050506040513d601f19601f820116820180604052508101906106d691906121e7565b60001c9050919050565b600060016000838152602001908152602001600020600201549050919050565b7f30644e72e131a029b85045b68181585d2833e84879b9709143e1f593f00000018410610759576040517fa61c78ca00000000000000000000000000000000000000000000000000000000815260040160405180910390fd5b6000610764856103fd565b60ff161461079e576040517f8121725b00000000000000000000000000000000000000000000000000000000815260040160405180910390fd5b6001600085815260200190815260200160002073__$bb01d34dc76fba63df526a43121fcb267a$__638aac5ac890918585856040518563ffffffff1660e01b81526004016107ef9493929190612c89565b60006040518083038186803b15801561080757600080fd5b505af415801561081b573d6000803e3d6000fd5b50505050837fc3082aa494e9088c2c9f0fb62a0b6bd46e6699acb94cfba35be29b95a93f68c88484604051610851929190612d5d565b60405180910390a250505050565b600033905090565b6000610872876103fd565b60ff1614156108ad576040517f029f057900000000000000000000000000000000000000000000000000000000815260040160405180910390fd5b6108da8585858585600160008d8152602001908152602001600020610d8e9095949392919063ffffffff16565b60006108e587610639565b9050867fe270325ded177064d7bda473e6519ef40a291058c41286f71a6e4872f1e9ab5c8783604051610919929190612d19565b60405180910390a250505050505050565b60008089815260200190815260200160002060009054906101000a900460ff1615610981576040517f948d067400000000000000000000000000000000000000000000000000000000815260040160405180910390fd5b600061098c8a611114565b905060006040518060c00160405280876008806020026040519081016040528092919082600860200280828437600081840152601f19601f82011690508083019250505050505081526020018481526020018b81526020018381526020018a815260200189898080601f016020809104026020016040519081016040528093929190818152602001838380828437600081840152601f19601f82011690508083019250505050505050815250905060008173__$2d408c303a7e487061c2c4d5102d665f73$__63f0d4020d9091876040518363ffffffff1660e01b8152600401610a77929190612cce565b60006040518083038186803b158015610a8f57600080fd5b505af4158015610aa3573d6000803e3d6000fd5b505050506040513d6000823e3d601f19601f82011682018060405250810190610acc91906122af565b50905060008673ffffffffffffffffffffffffffffffffffffffff1663b4b764f260405180604001604052808b600060088110610b0c57610b0b613322565b5b602002013581526020018b600160088110610b2a57610b29613322565b5b6020020135815250604051806040016040528060405180604001604052808e600260088110610b5c57610b5b613322565b5b602002013581526020018e600360088110610b7a57610b79613322565b5b6020020135815250815260200160405180604001604052808e600460088110610ba657610ba5613322565b5b602002013581526020018e600560088110610bc457610bc3613322565b5b602002013581525081525060405180604001604052808d600660088110610bee57610bed613322565b5b602002013581526020018d600760088110610c0c57610c0b613322565b5b6020020135815250868b6040518663ffffffff1660e01b8152600401610c36959493929190612aa0565b60206040518083038186803b158015610c4e57600080fd5b505afa158015610c62573d6000803e3d6000fd5b505050506040513d601f19601f82011682018060405250810190610c8691906121ba565b905080610cc8576040517f08c379a0000000000000000000000000000000000000000000000000000000008152600401610cbf90612b33565b60405180910390fd5b50505050505050505050505050565b6000610ce2836103fd565b60ff161415610d1d576040517f029f057900000000000000000000000000000000000000000000000000000000815260040160405180910390fd5b610d42816001600085815260200190815260200160002061114b90919063ffffffff16565b6000610d4d83610639565b9050827f03fd27265b7dd1f55558bedc22a58fa3b10afb1be776e614bd5a7ba7b94994068383604051610d81929190612d19565b60405180910390a2505050565b610d9c868686868686611433565b610ddb576040517f08c379a0000000000000000000000000000000000000000000000000000000008152600401610dd290612b53565b60405180910390fd5b6000610de760006117bb565b60001c905060005b8760000160019054906101000a900460ff1660ff168160ff1610156110d357600084848360ff16818110610e2657610e25613322565b5b9050602002016020810190610e3b91906124e3565b60ff161415610f84578760030160008260ff168152602001908152602001600020600160028110610e6f57610e6e613322565b5b015486868360ff16818110610e8757610e86613322565b5b905060200201351415610ec657818860030160008360ff168152602001908152602001600020600060028110610ec057610ebf613322565b5b01819055505b73__$c71a83c115de0c7ed4ad66768f63425c95$__6329a5f2f6604051806040016040528085815260200189898660ff16818110610f0757610f06613322565b5b905060200201358152506040518263ffffffff1660e01b8152600401610f2d9190612a85565b60206040518083038186803b158015610f4557600080fd5b505af4158015610f59573d6000803e3d6000fd5b505050506040513d601f19601f82011682018060405250810190610f7d9190612354565b91506110c0565b8760030160008260ff168152602001908152602001600020600060028110610faf57610fae613322565b5b015486868360ff16818110610fc757610fc6613322565b5b90506020020135141561100657818860030160008360ff16815260200190815260200160002060016002811061100057610fff613322565b5b01819055505b73__$c71a83c115de0c7ed4ad66768f63425c95$__6329a5f2f6604051806040016040528089898660ff1681811061104157611040613322565b5b905060200201358152602001858152506040518263ffffffff1660e01b815260040161106d9190612a85565b60206040518083038186803b15801561108557600080fd5b505af4158015611099573d6000803e3d6000fd5b505050506040513d601f19601f820116820180604052508101906110bd9190612354565b91505b80806110cb9061322e565b915050610def565b508060001b8760010160008960000160029054906101000a900463ffffffff1663ffffffff1681526020019081526020016000208190555050505050505050565b60006008826040516020016111299190612a6a565b6040516020818303038152906040528051906020012060001c901c9050919050565b7f30644e72e131a029b85045b68181585d2833e84879b9709143e1f593f000000181106111ad576040517f08c379a00000000000000000000000000000000000000000000000000000000081526004016111a490612b73565b60405180910390fd5b8160000160019054906101000a900460ff1660026111cb9190613019565b826002015410611210576040517f08c379a000000000000000000000000000000000000000000000000000000000815260040161120790612c33565b60405180910390fd5b600082600201549050600082905060005b8460000160019054906101000a900460ff1660ff168160ff16101561139857600060028461124f9190613262565b14156112a45760405180604001604052808381526020016112728360ff166117bb565b60001c8152508560030160008360ff16815260200190815260200160002090600261129e929190611e98565b506112d6565b818560030160008360ff1681526020019081526020016000206001600281106112d0576112cf613322565b5b01819055505b73__$c71a83c115de0c7ed4ad66768f63425c95$__6329a5f2f68660030160008460ff1681526020019081526020016000206040518263ffffffff1660e01b81526004016113249190612afd565b60206040518083038186803b15801561133c57600080fd5b505af4158015611350573d6000803e3d6000fd5b505050506040513d601f19601f820116820180604052508101906113749190612354565b91506002836113839190612f95565b925080806113909061322e565b915050611221565b506000601e60018660000160029054906101000a900463ffffffff166113be9190612f5b565b6113c89190613293565b9050808560000160026101000a81548163ffffffff021916908363ffffffff1602179055508160001b8560010160008363ffffffff1681526020019081526020016000208190555060018560020160008282546114259190612f05565b925050819055505050505050565b60007f30644e72e131a029b85045b68181585d2833e84879b9709143e1f593f00000018610611497576040517f08c379a000000000000000000000000000000000000000000000000000000000815260040161148e90612b73565b60405180910390fd5b8660000160019054906101000a900460ff1660ff16838390501480156114d357508660000160019054906101000a900460ff1660ff1685859050145b611512576040517f08c379a000000000000000000000000000000000000000000000000000000000815260040161150990612bf3565b60405180910390fd5b600086905060005b8860000160019054906101000a900460ff1660ff168160ff161015611778577f30644e72e131a029b85045b68181585d2833e84879b9709143e1f593f000000187878360ff168181106115705761156f613322565b5b90506020020135106115b7576040517f08c379a00000000000000000000000000000000000000000000000000000000081526004016115ae90612b93565b60405180910390fd5b600085858360ff168181106115cf576115ce613322565b5b90506020020160208101906115e491906124e3565b60ff1614156116ab5773__$c71a83c115de0c7ed4ad66768f63425c95$__6329a5f2f660405180604001604052808581526020018a8a8660ff1681811061162e5761162d613322565b5b905060200201358152506040518263ffffffff1660e01b81526004016116549190612a85565b60206040518083038186803b15801561166c57600080fd5b505af4158015611680573d6000803e3d6000fd5b505050506040513d601f19601f820116820180604052508101906116a49190612354565b9150611765565b73__$c71a83c115de0c7ed4ad66768f63425c95$__6329a5f2f660405180604001604052808a8a8660ff168181106116e6576116e5613322565b5b905060200201358152602001858152506040518263ffffffff1660e01b81526004016117129190612a85565b60206040518083038186803b15801561172a57600080fd5b505af415801561173e573d6000803e3d6000fd5b505050506040513d601f19601f820116820180604052508101906117629190612354565b91505b80806117709061322e565b91505061151a565b508760010160008960000160029054906101000a900463ffffffff1663ffffffff1681526020019081526020016000205460001c81149150509695505050505050565b6000808214156117f0577f2fe54c60d3acabf3343a35b6eba15db4821b340f76e741e2249685ed4899af6c60001b9050611e76565b6001821415611824577f13e37f2d6cb86c78ccc1788607c2b199788c6bb0a615a21f2e7a8e88384222f860001b9050611e76565b6002821415611858577f217126fa352c326896e8c2803eec8fd63ad50cf65edfef27a41a9e32dc62276560001b9050611e76565b600382141561188c577f0e28a61a9b3e91007d5a9e3ada18e1b24d6d230c618388ee5df34cacd7397eee60001b9050611e76565b60048214156118c0577f27953447a6979839536badc5425ed15fadb0e292e9bc36f92f0aa5cfa501358760001b9050611e76565b60058214156118f4577f194191edbfb91d10f6a7afd315f33095410c7801c47175c2df6dc2cce0e3affc60001b9050611e76565b6006821415611928577f1733dece17d71190516dbaf1927936fa643dc7079fc0cc731de9d6845a47741f60001b9050611e76565b600782141561195c577f267855a7dc75db39d81d17f95d0a7aa572bf5ae19f4db0e84221d2b2ef99921960001b9050611e76565b6008821415611990577f1184e11836b4c36ad8238a340ecc0985eeba665327e33e9b0e3641027c27620d60001b9050611e76565b60098214156119c4577f0702ab83a135d7f55350ab1bfaa90babd8fc1d2b3e6a7215381a7b2213d6c5ce60001b9050611e76565b600a8214156119f8577f2eecc0de814cfd8c57ce882babb2e30d1da56621aef7a47f3291cffeaec26ad760001b9050611e76565b600b821415611a2c577f280bc02145c155d5833585b6c7b08501055157dd30ce005319621dc462d33b4760001b9050611e76565b600c821415611a60577f045132221d1fa0a7f4aed8acd2cbec1e2189b7732ccb2ec272b9c60f0d5afc5b60001b9050611e76565b600d821415611a94577f27f427ccbf58a44b1270abbe4eda6ba53bd6ac4d88cf1e00a13c4371ce71d36660001b9050611e76565b600e821415611ac8577f1617eaae5064f26e8f8a6493ae92bfded7fde71b65df1ca6d5dcec0df70b2cef60001b9050611e76565b600f821415611afc577f20c6b400d0ea1b15435703c31c31ee63ad7ba5c8da66cec2796feacea575abca60001b9050611e76565b6010821415611b30577f09589ddb438723f53a8e57bdada7c5f8ed67e8fece3889a73618732965645eec60001b9050611e76565b6011821415611b63577e64b6a738a5ff537db7b220f3394f0ecbd35bfd355c5425dc1166bf3236079b60001b9050611e76565b6012821415611b97577f095de56281b1d5055e897c3574ff790d5ee81dbc5df784ad2d67795e557c9e9f60001b9050611e76565b6013821415611bcb577f11cf2e2887aa21963a6ec14289183efe4d4c60f14ecd3d6fe0beebdf855a9b6360001b9050611e76565b6014821415611bff577f2b0f6fc0179fa65b6f73627c0e1e84c7374d2eaec44c9a48f2571393ea77bcbb60001b9050611e76565b6015821415611c33577f16fdb637c2abf9c0f988dbf2fd64258c46fb6a273d537b2cf1603ea460b1327960001b9050611e76565b6016821415611c67577f21bbd7e944f6124dad4c376df9cc12e7ca66e47dff703ff7cedb1a454edcf0ff60001b9050611e76565b6017821415611c9b577f2784f8220b1c963e468f590f137baaa1625b3b92a27ad9b6e84eb0d3454d996260001b9050611e76565b6018821415611ccf577f16ace1a65b7534142f8cc1aad810b3d6a7a74ca905d9c275cb98ba57e509fc1060001b9050611e76565b6019821415611d03577f2328068c6a8c24265124debd8fe10d3f29f0665ea725a65e3638f6192a96a01360001b9050611e76565b601a821415611d37577f2ddb991be1f028022411b4c4d2c22043e5e751c120736f00adf54acab1c9ac1460001b9050611e76565b601b821415611d6b577f0113798410eaeb95056a464f70521eb58377c0155f2fe518a5594d38cc209cc060001b9050611e76565b601c821415611d9f577f202d1ae61526f0d0d01ef80fb5d4055a7af45721024c2c24cffd6a3798f54d5060001b9050611e76565b601d821415611dd3577f23ab323453748129f2765f79615022f5bebd6f4096a796300aab049a60b0f18760001b9050611e76565b601e821415611e07577f1f15585f8947e378bcf8bd918716799da909acdb944c57150b1eb4565fda8aa060001b9050611e76565b601f821415611e3b577f1eb064b21055ac6a350cf41eb30e4ce2cb19680217df3a243617c2838185ad0660001b9050611e76565b6040517f08c379a0000000000000000000000000000000000000000000000000000000008152600401611e6d90612c13565b60405180910390fd5b919050565b604051806040016040528060008152602001600060ff1681525090565b8260028101928215611ec7579160200282015b82811115611ec6578251825591602001919060010190611eab565b5b509050611ed49190611ed8565b5090565b5b80821115611ef1576000816000905550600101611ed9565b5090565b6000611f08611f0384612dab565b612d86565b90508083825260208201905082856020860282011115611f2b57611f2a61339d565b5b60005b85811015611f5b5781611f4188826120e2565b845260208401935060208301925050600181019050611f2e565b5050509392505050565b6000611f78611f7384612dd7565b612d86565b905082815260208101848484011115611f9457611f936133a2565b5b611f9f8482856131b0565b509392505050565b600081359050611fb68161367d565b92915050565b600082601f830112611fd157611fd0613398565b5b8151611fe1848260208601611ef5565b91505092915050565b6000819050826020600802820111156120065761200561339d565b5b92915050565b60008083601f84011261202257612021613398565b5b8235905067ffffffffffffffff81111561203f5761203e613393565b5b60208301915083602082028301111561205b5761205a61339d565b5b9250929050565b60008083601f84011261207857612077613398565b5b8235905067ffffffffffffffff81111561209557612094613393565b5b6020830191508360208202830111156120b1576120b061339d565b5b9250929050565b6000815190506120c781613694565b92915050565b6000813590506120dc816136ab565b92915050565b6000815190506120f1816136ab565b92915050565b60008083601f84011261210d5761210c613398565b5b8235905067ffffffffffffffff81111561212a57612129613393565b5b6020830191508360018202830111156121465761214561339d565b5b9250929050565b600082601f83011261216257612161613398565b5b8151612172848260208601611f65565b91505092915050565b60008135905061218a816136c2565b92915050565b60008151905061219f816136c2565b92915050565b6000813590506121b4816136d9565b92915050565b6000602082840312156121d0576121cf6133ac565b5b60006121de848285016120b8565b91505092915050565b6000602082840312156121fd576121fc6133ac565b5b600061220b848285016120e2565b91505092915050565b6000806000806000806101808789031215612232576122316133ac565b5b600061224089828a016120cd565b965050602061225189828a0161217b565b955050604061226289828a0161217b565b945050606087013567ffffffffffffffff811115612283576122826133a7565b5b61228f89828a016120f7565b935093505060806122a289828a01611fea565b9150509295509295509295565b600080604083850312156122c6576122c56133ac565b5b600083015167ffffffffffffffff8111156122e4576122e36133a7565b5b6122f08582860161214d565b925050602083015167ffffffffffffffff811115612311576123106133a7565b5b61231d85828601611fbc565b9150509250929050565b60006020828403121561233d5761233c6133ac565b5b600061234b8482850161217b565b91505092915050565b60006020828403121561236a576123696133ac565b5b600061237884828501612190565b91505092915050565b60008060408385031215612398576123976133ac565b5b60006123a68582860161217b565b92505060206123b78582860161217b565b9150509250929050565b600080600080600080608087890312156123de576123dd6133ac565b5b60006123ec89828a0161217b565b96505060206123fd89828a0161217b565b955050604087013567ffffffffffffffff81111561241e5761241d6133a7565b5b61242a89828a0161200c565b9450945050606087013567ffffffffffffffff81111561244d5761244c6133a7565b5b61245989828a01612062565b92509250509295509295509295565b600080600080600060a08688031215612484576124836133ac565b5b60006124928882890161217b565b95505060206124a3888289016121a5565b94505060406124b48882890161217b565b93505060606124c588828901611fa7565b92505060806124d6888289016121a5565b9150509295509295909350565b6000602082840312156124f9576124f86133ac565b5b6000612507848285016121a5565b91505092915050565b600061251c83836125af565b60408301905092915050565b60006125348383612a01565b60208301905092915050565b600061254c8383612a2e565b60208301905092915050565b61256181612e30565b61256b8184612e9b565b925061257682612e08565b8060005b838110156125a757815161258e8782612510565b965061259983612e67565b92505060018101905061257a565b505050505050565b6125b881612e3b565b6125c28184612ea6565b92506125cd82612e12565b8060005b838110156125fe5781516125e58782612528565b96506125f083612e74565b9250506001810190506125d1565b505050505050565b61260f81612e3b565b6126198184612eb1565b925061262482612e12565b8060005b8381101561265557815161263c8782612528565b965061264783612e74565b925050600181019050612628565b505050505050565b61266681612e3b565b6126708184612ebc565b925061267b82612e12565b8060005b838110156126ac5781516126938782612540565b965061269e83612e74565b92505060018101905061267f565b505050505050565b6126bd81612e46565b6126c78184612ebc565b92506126d282612e1c565b8060005b8381101561270a576126e782613380565b6126f18782612540565b96506126fc83612e81565b9250506001810190506126d6565b505050505050565b61271b81612e51565b6127258184612ec7565b925061273082612e26565b8060005b838110156127615781516127488782612540565b965061275383612e8e565b925050600181019050612734565b505050505050565b6127728161315f565b82525050565b6127896127848261315f565b613258565b82525050565b600061279a82612e5c565b6127a48185612ed2565b93506127b48185602086016131b0565b6127bd816133b1565b840191505092915050565b60006127d382612e5c565b6127dd8185612ee3565b93506127ed8185602086016131b0565b6127f6816133b1565b840191505092915050565b600061280e600e83612ef4565b9150612819826133dc565b602082019050919050565b6000612831603b83612ef4565b915061283c82613405565b604082019050919050565b6000612854604083612ef4565b915061285f82613454565b604082019050919050565b6000612877604883612ef4565b9150612882826134a3565b606082019050919050565b600061289a603583612ef4565b91506128a582613518565b604082019050919050565b60006128bd603183612ef4565b91506128c882613567565b604082019050919050565b60006128e0603c83612ef4565b91506128eb826135b6565b604082019050919050565b6000612903601383612ef4565b915061290e82613605565b602082019050919050565b6000612926602b83612ef4565b91506129318261362e565b604082019050919050565b6040820160008201516129526000850182612a01565b5060208201516129656020850182612a3d565b50505050565b8082525050565b60006101a08301600083015161298b6000860182612712565b50602083015161299f610100860182612a2e565b5060408301516129b3610120860182612a2e565b5060608301516129c7610140860182612a2e565b5060808301516129db610160860182612a2e565b5060a08301518482036101808601526129f482826127c8565b9150508091505092915050565b612a0a81613189565b82525050565b612a1981613189565b82525050565b612a2881613189565b82525050565b612a3781613189565b82525050565b612a46816131a3565b82525050565b612a55816131a3565b82525050565b612a64816131a3565b82525050565b6000612a768284612778565b60208201915081905092915050565b6000604082019050612a9a600083018461265d565b92915050565b600061014082019050612ab66000830188612606565b612ac36040830187612558565b612ad060c0830186612606565b818103610100830152612ae3818561278f565b9050612af3610120830184612a4c565b9695505050505050565b6000604082019050612b1260008301846126b4565b92915050565b6000602082019050612b2d6000830184612769565b92915050565b60006020820190508181036000830152612b4c81612801565b9050919050565b60006020820190508181036000830152612b6c81612824565b9050919050565b60006020820190508181036000830152612b8c81612847565b9050919050565b60006020820190508181036000830152612bac8161286a565b9050919050565b60006020820190508181036000830152612bcc8161288d565b9050919050565b60006020820190508181036000830152612bec816128b0565b9050919050565b60006020820190508181036000830152612c0c816128d3565b9050919050565b60006020820190508181036000830152612c2c816128f6565b9050919050565b60006020820190508181036000830152612c4c81612919565b9050919050565b6000604082019050612c68600083018461293c565b92915050565b6000602082019050612c83600083018461296b565b92915050565b6000608082019050612c9e600083018761296b565b612cab6020830186612a5b565b612cb86040830185612a1f565b612cc56060830184612a5b565b95945050505050565b60006040820190508181036000830152612ce88185612972565b9050612cf76020830184612a5b565b9392505050565b6000602082019050612d136000830184612a10565b92915050565b6000604082019050612d2e6000830185612a10565b612d3b6020830184612a10565b9392505050565b6000602082019050612d576000830184612a4c565b92915050565b6000604082019050612d726000830185612a4c565b612d7f6020830184612a10565b9392505050565b6000612d90612da1565b9050612d9c82826131fd565b919050565b6000604051905090565b600067ffffffffffffffff821115612dc657612dc5613351565b5b602082029050602081019050919050565b600067ffffffffffffffff821115612df257612df1613351565b5b612dfb826133b1565b9050602081019050919050565b6000819050919050565b6000819050919050565b6000819050919050565b6000819050919050565b600060029050919050565b600060029050919050565b600060029050919050565b600060089050919050565b600081519050919050565b6000602082019050919050565b6000602082019050919050565b6000600182019050919050565b6000602082019050919050565b600081905092915050565b600081905092915050565b600081905092915050565b600081905092915050565b600081905092915050565b600082825260208201905092915050565b600082825260208201905092915050565b600082825260208201905092915050565b6000612f1082613189565b9150612f1b83613189565b9250827fffffffffffffffffffffffffffffffffffffffffffffffffffffffffffffffff03821115612f5057612f4f6132c4565b5b828201905092915050565b6000612f6682613193565b9150612f7183613193565b92508263ffffffff03821115612f8a57612f896132c4565b5b828201905092915050565b6000612fa082613189565b9150612fab83613189565b925082612fbb57612fba6132f3565b5b828204905092915050565b6000808291508390505b600185111561301057808604811115612fec57612feb6132c4565b5b6001851615612ffb5780820291505b8081029050613009856133cf565b9450612fd0565b94509492505050565b600061302482613189565b915061302f836131a3565b925061305c7fffffffffffffffffffffffffffffffffffffffffffffffffffffffffffffffff8484613064565b905092915050565b6000826130745760019050613130565b816130825760009050613130565b816001811461309857600281146130a2576130d1565b6001915050613130565b60ff8411156130b4576130b36132c4565b5b8360020a9150848211156130cb576130ca6132c4565b5b50613130565b5060208310610133831016604e8410600b84101617156131065782820a905083811115613101576131006132c4565b5b613130565b6131138484846001612fc6565b9250905081840481111561312a576131296132c4565b5b81810290505b9392505050565b6000819050919050565b600061314c82613169565b9050919050565b60008115159050919050565b6000819050919050565b600073ffffffffffffffffffffffffffffffffffffffff82169050919050565b6000819050919050565b600063ffffffff82169050919050565b600060ff82169050919050565b60005b838110156131ce5780820151818401526020810190506131b3565b838111156131dd576000848401525b50505050565b60006131f66131f1836133c2565b613137565b9050919050565b613206826133b1565b810181811067ffffffffffffffff8211171561322557613224613351565b5b80604052505050565b6000613239826131a3565b915060ff82141561324d5761324c6132c4565b5b600182019050919050565b6000819050919050565b600061326d82613189565b915061327883613189565b925082613288576132876132f3565b5b828206905092915050565b600061329e82613193565b91506132a983613193565b9250826132b9576132b86132f3565b5b828206905092915050565b7f4e487b7100000000000000000000000000000000000000000000000000000000600052601160045260246000fd5b7f4e487b7100000000000000000000000000000000000000000000000000000000600052601260045260246000fd5b7f4e487b7100000000000000000000000000000000000000000000000000000000600052603260045260246000fd5b7f4e487b7100000000000000000000000000000000000000000000000000000000600052604160045260246000fd5b600061338c82546131e3565b9050919050565b600080fd5b600080fd5b600080fd5b600080fd5b600080fd5b600080fd5b6000601f19601f8301169050919050565b60008160001c9050919050565b60008160011c9050919050565b7f496e76616c696450726f6f662829000000000000000000000000000000000000600082015250565b7f4c696e6b61626c65496e6372656d656e74616c42696e617279547265653a206c60008201527f656166206973206e6f742070617274206f662074686520747265650000000000602082015250565b7f4c696e6b61626c65496e6372656d656e74616c42696e617279547265653a206c60008201527f656166206d757374206265203c20534e41524b5f5343414c41525f4649454c44602082015250565b7f4c696e6b61626c65496e6372656d656e74616c42696e617279547265653a207360008201527f69626c696e67206e6f6465206d757374206265203c20534e41524b5f5343414c60208201527f41525f4649454c44000000000000000000000000000000000000000000000000604082015250565b7f53656d6170686f726557686973746c65626c6f77696e673a206465707468207660008201527f616c7565206973206e6f7420737570706f727465640000000000000000000000602082015250565b7f53656d6170686f726557686973746c65626c6f77696e673a2063616c6c65722060008201527f6973206e6f742074686520656469746f72000000000000000000000000000000602082015250565b7f4c696e6b61626c65496e6372656d656e74616c42696e617279547265653a206c60008201527f656e677468206f662070617468206973206e6f7420636f727265637400000000602082015250565b7f496e646578206f7574206f6620626f756e647300000000000000000000000000600082015250565b7f4c696e6b61626c65496e6372656d656e74616c42696e617279547265653a207460008201527f7265652069732066756c6c000000000000000000000000000000000000000000602082015250565b61368681613141565b811461369157600080fd5b50565b61369d81613153565b81146136a857600080fd5b50565b6136b48161315f565b81146136bf57600080fd5b50565b6136cb81613189565b81146136d657600080fd5b50565b6136e2816131a3565b81146136ed57600080fd5b5056fea264697066735822122046c128e900a904aaa8a5ac7638d0a4fb714f17a44ff0514f6549f069b6e33a6f64736f6c63430008050033",
  "linkReferences": {
    "@zk-kit/incremental-merkle-tree.sol/Hashes.sol": {
      "PoseidonT3": [
        {
          "length": 20,
          "start": 5390
        },
        {
          "length": 20,
          "start": 5710
        },
        {
          "length": 20,
          "start": 6430
        },
        {
          "length": 20,
          "start": 7221
        },
        {
          "length": 20,
          "start": 7411
        }
      ]
    },
    "contracts/base/LinkableIncrementalBinaryTree.sol": {
      "LinkableIncrementalBinaryTree": [
        {
          "length": 20,
          "start": 3222
        },
        {
          "length": 20,
          "start": 3577
        }
      ]
    },
    "contracts/base/SemaphoreInputEncoder.sol": {
      "SemaphoreInputEncoder": [
        {
          "length": 20,
          "start": 4229
        }
      ]
    }
  },
  "deployedLinkReferences": {
    "@zk-kit/incremental-merkle-tree.sol/Hashes.sol": {
      "PoseidonT3": [
        {
          "length": 20,
          "start": 3784
        },
        {
          "length": 20,
          "start": 4104
        },
        {
          "length": 20,
          "start": 4824
        },
        {
          "length": 20,
          "start": 5615
        },
        {
          "length": 20,
          "start": 5805
        }
      ]
    },
    "contracts/base/LinkableIncrementalBinaryTree.sol": {
      "LinkableIncrementalBinaryTree": [
        {
          "length": 20,
          "start": 1616
        },
        {
          "length": 20,
          "start": 1971
        }
      ]
    },
    "contracts/base/SemaphoreInputEncoder.sol": {
      "SemaphoreInputEncoder": [
        {
          "length": 20,
          "start": 2623
        }
      ]
    }
  }
}